{
  "contractName": "ElectionCon",
  "abi": [
    {
      "inputs": [],
      "stateMutability": "nonpayable",
      "type": "constructor"
    },
    {
      "anonymous": false,
      "inputs": [
        {
          "indexed": false,
          "internalType": "address",
          "name": "_admin",
          "type": "address"
        }
      ],
      "name": "EmitAddAdmin",
      "type": "event"
    },
    {
      "anonymous": false,
      "inputs": [
        {
          "indexed": false,
          "internalType": "address",
          "name": "accountAddress",
          "type": "address"
        },
        {
          "indexed": false,
          "internalType": "string",
          "name": "accountName",
          "type": "string"
        },
        {
          "indexed": false,
          "internalType": "string",
          "name": "accountPhone",
          "type": "string"
        },
        {
          "indexed": false,
          "internalType": "string",
          "name": "accountCountry",
          "type": "string"
        },
        {
          "indexed": false,
          "internalType": "string",
          "name": "accountEmail",
          "type": "string"
        }
      ],
      "name": "EmitModifiedAccounts",
      "type": "event"
    },
    {
      "anonymous": false,
      "inputs": [
        {
          "indexed": false,
          "internalType": "uint256",
          "name": "electionId",
          "type": "uint256"
        },
        {
          "indexed": false,
          "internalType": "string",
          "name": "electionTitle",
          "type": "string"
        },
        {
          "indexed": false,
          "internalType": "string",
          "name": "electionCanOne",
          "type": "string"
        },
        {
          "indexed": false,
          "internalType": "string",
          "name": "electionCanTwo",
          "type": "string"
        }
      ],
      "name": "EmitNewElections",
      "type": "event"
    },
    {
      "anonymous": false,
      "inputs": [
        {
          "indexed": false,
          "internalType": "uint256",
          "name": "voterId",
          "type": "uint256"
        },
        {
          "indexed": false,
          "internalType": "address",
          "name": "voterAddress",
          "type": "address"
        },
        {
          "indexed": false,
          "internalType": "uint256",
          "name": "registeredElection",
          "type": "uint256"
        }
      ],
      "name": "EmitRegisteredVoter",
      "type": "event"
    },
    {
      "anonymous": false,
      "inputs": [
        {
          "indexed": false,
          "internalType": "uint256",
          "name": "voterId",
          "type": "uint256"
        },
        {
          "indexed": false,
          "internalType": "address",
          "name": "voterAddress",
          "type": "address"
        },
        {
          "indexed": false,
          "internalType": "uint256",
          "name": "registeredElection",
          "type": "uint256"
        }
      ],
      "name": "EmitVerifiedVoters",
      "type": "event"
    },
    {
      "anonymous": false,
      "inputs": [
        {
          "indexed": false,
          "internalType": "address",
          "name": "_voter",
          "type": "address"
        },
        {
          "indexed": false,
          "internalType": "string",
          "name": "_electionTitle",
          "type": "string"
        },
        {
          "indexed": false,
          "internalType": "string",
          "name": "_candidateName",
          "type": "string"
        },
        {
          "indexed": false,
          "internalType": "uint256",
          "name": "_electionCanOneCount",
          "type": "uint256"
        },
        {
          "indexed": false,
          "internalType": "uint256",
          "name": "_electionCanTwoCount",
          "type": "uint256"
        },
        {
          "indexed": false,
          "internalType": "uint256",
          "name": "_timeVoted",
          "type": "uint256"
        }
      ],
      "name": "EmitVoted",
      "type": "event"
    },
    {
      "inputs": [
        {
          "internalType": "address",
          "name": "",
          "type": "address"
        }
      ],
      "name": "accountsDetails",
      "outputs": [
        {
          "internalType": "address",
          "name": "accountAddress",
          "type": "address"
        },
        {
          "internalType": "string",
          "name": "accountName",
          "type": "string"
        },
        {
          "internalType": "string",
          "name": "accountPhone",
          "type": "string"
        },
        {
          "internalType": "string",
          "name": "accountCountry",
          "type": "string"
        },
        {
          "internalType": "string",
          "name": "accountEmail",
          "type": "string"
        },
        {
          "internalType": "bool",
          "name": "cantChange",
          "type": "bool"
        }
      ],
      "stateMutability": "view",
      "type": "function",
      "constant": true
    },
    {
      "inputs": [
        {
          "internalType": "uint256",
          "name": "",
          "type": "uint256"
        }
      ],
      "name": "adminDetails",
      "outputs": [
        {
          "internalType": "uint256",
          "name": "adminId",
          "type": "uint256"
        },
        {
          "internalType": "address",
          "name": "adminAddress",
          "type": "address"
        }
      ],
      "stateMutability": "view",
      "type": "function",
      "constant": true
    },
    {
      "inputs": [
        {
          "internalType": "uint256",
          "name": "",
          "type": "uint256"
        }
      ],
      "name": "admins",
      "outputs": [
        {
          "internalType": "address",
          "name": "",
          "type": "address"
        }
      ],
      "stateMutability": "view",
      "type": "function",
      "constant": true
    },
    {
      "inputs": [],
      "name": "electionCount",
      "outputs": [
        {
          "internalType": "uint256",
          "name": "",
          "type": "uint256"
        }
      ],
      "stateMutability": "view",
      "type": "function",
      "constant": true
    },
    {
      "inputs": [
        {
          "internalType": "uint256",
          "name": "",
          "type": "uint256"
        }
      ],
      "name": "electionDetails",
      "outputs": [
        {
          "internalType": "uint256",
          "name": "electionId",
          "type": "uint256"
        },
        {
          "internalType": "string",
          "name": "electionTitle",
          "type": "string"
        },
        {
          "internalType": "string",
          "name": "electionCanOne",
          "type": "string"
        },
        {
          "internalType": "string",
          "name": "electionCanOneHash",
          "type": "string"
        },
        {
          "internalType": "uint256",
          "name": "electionCanOneCount",
          "type": "uint256"
        },
        {
          "internalType": "string",
          "name": "electionCanTwo",
          "type": "string"
        },
        {
          "internalType": "string",
          "name": "electionCanTwoHash",
          "type": "string"
        },
        {
          "internalType": "uint256",
          "name": "electionCanTwoCount",
          "type": "uint256"
        },
        {
          "internalType": "uint256",
          "name": "voterCount",
          "type": "uint256"
        },
        {
          "internalType": "uint256",
          "name": "votedCount",
          "type": "uint256"
        },
        {
          "internalType": "bool",
          "name": "start",
          "type": "bool"
        },
        {
          "internalType": "bool",
          "name": "end",
          "type": "bool"
        }
      ],
      "stateMutability": "view",
      "type": "function",
      "constant": true
    },
    {
      "inputs": [],
      "name": "superAdmin",
      "outputs": [
        {
          "internalType": "address",
          "name": "",
          "type": "address"
        }
      ],
      "stateMutability": "view",
      "type": "function",
      "constant": true
    },
    {
      "inputs": [],
      "name": "voterCount",
      "outputs": [
        {
          "internalType": "uint256",
          "name": "",
          "type": "uint256"
        }
      ],
      "stateMutability": "view",
      "type": "function",
      "constant": true
    },
    {
      "inputs": [
        {
          "internalType": "uint256",
          "name": "",
          "type": "uint256"
        }
      ],
      "name": "voterDetails",
      "outputs": [
        {
          "internalType": "uint256",
          "name": "voterId",
          "type": "uint256"
        },
        {
          "internalType": "address",
          "name": "voterAddress",
          "type": "address"
        },
        {
          "internalType": "uint256",
          "name": "registeredElection",
          "type": "uint256"
        },
        {
          "internalType": "bool",
          "name": "isRegistered",
          "type": "bool"
        },
        {
          "internalType": "bool",
          "name": "isVerified",
          "type": "bool"
        },
        {
          "internalType": "bool",
          "name": "hasVoted",
          "type": "bool"
        },
        {
          "internalType": "uint256",
          "name": "timeVoted",
          "type": "uint256"
        }
      ],
      "stateMutability": "view",
      "type": "function",
      "constant": true
    },
    {
      "inputs": [],
      "name": "getAdmin",
      "outputs": [
        {
          "internalType": "address",
          "name": "",
          "type": "address"
        }
      ],
      "stateMutability": "view",
      "type": "function",
      "constant": true
    },
    {
      "inputs": [
        {
          "internalType": "string",
          "name": "_electionTitle",
          "type": "string"
        },
        {
          "internalType": "string",
          "name": "_electionCanOne",
          "type": "string"
        },
        {
          "internalType": "string",
          "name": "_electionCanTwo",
          "type": "string"
        },
        {
          "internalType": "string",
          "name": "_electionCanOneHash",
          "type": "string"
        },
        {
          "internalType": "string",
          "name": "_electionCanTwoHash",
          "type": "string"
        }
      ],
      "name": "addElection",
      "outputs": [],
      "stateMutability": "nonpayable",
      "type": "function"
    },
    {
      "inputs": [
        {
          "internalType": "uint256",
          "name": "_registeredElection",
          "type": "uint256"
        }
      ],
      "name": "addVoter",
      "outputs": [],
      "stateMutability": "nonpayable",
      "type": "function"
    },
    {
      "inputs": [
        {
          "internalType": "string",
          "name": "_accountName",
          "type": "string"
        },
        {
          "internalType": "string",
          "name": "_accountPhone",
          "type": "string"
        },
        {
          "internalType": "string",
          "name": "_accountCountry",
          "type": "string"
        },
        {
          "internalType": "string",
          "name": "_accountEmail",
          "type": "string"
        }
      ],
      "name": "addAccounts",
      "outputs": [],
      "stateMutability": "nonpayable",
      "type": "function"
    },
    {
      "inputs": [
        {
          "internalType": "address",
          "name": "_adminAddress",
          "type": "address"
        }
      ],
      "name": "addAdmin",
      "outputs": [],
      "stateMutability": "nonpayable",
      "type": "function"
    },
    {
      "inputs": [
        {
          "internalType": "uint256",
          "name": "_adminIndex",
          "type": "uint256"
        }
      ],
      "name": "removeAdmin",
      "outputs": [],
      "stateMutability": "nonpayable",
      "type": "function"
    },
    {
      "inputs": [
        {
          "internalType": "uint256",
          "name": "_voterId",
          "type": "uint256"
        },
        {
          "internalType": "uint256",
          "name": "_electionId",
          "type": "uint256"
        }
      ],
      "name": "verifyVoter",
      "outputs": [],
      "stateMutability": "nonpayable",
      "type": "function"
    },
    {
      "inputs": [
        {
          "internalType": "uint256",
          "name": "_voterId",
          "type": "uint256"
        },
        {
          "internalType": "uint256",
          "name": "_electionId",
          "type": "uint256"
        },
        {
          "internalType": "uint256",
          "name": "_candidate",
          "type": "uint256"
        }
      ],
      "name": "voteElection",
      "outputs": [],
      "stateMutability": "nonpayable",
      "type": "function"
    },
    {
      "inputs": [
        {
          "internalType": "address",
          "name": "_accountAddress",
          "type": "address"
        }
      ],
      "name": "allowChange",
      "outputs": [],
      "stateMutability": "nonpayable",
      "type": "function"
    },
    {
      "inputs": [
        {
          "internalType": "uint256",
          "name": "_electionId",
          "type": "uint256"
        }
      ],
      "name": "startElection",
      "outputs": [],
      "stateMutability": "nonpayable",
      "type": "function"
    },
    {
      "inputs": [
        {
          "internalType": "uint256",
          "name": "_electionId",
          "type": "uint256"
        }
      ],
      "name": "endElection",
      "outputs": [],
      "stateMutability": "nonpayable",
      "type": "function"
    },
    {
      "inputs": [
        {
          "internalType": "uint256",
          "name": "_electionId",
          "type": "uint256"
        }
      ],
      "name": "getElectionTitle",
      "outputs": [
        {
          "internalType": "string",
          "name": "",
          "type": "string"
        }
      ],
      "stateMutability": "view",
      "type": "function",
      "constant": true
    },
    {
      "inputs": [
        {
          "internalType": "address",
          "name": "_voterAddress",
          "type": "address"
        }
      ],
      "name": "getVoterName",
      "outputs": [
        {
          "internalType": "string",
          "name": "",
          "type": "string"
        }
      ],
      "stateMutability": "view",
      "type": "function",
      "constant": true
    },
    {
      "inputs": [],
      "name": "getAdminLength",
      "outputs": [
        {
          "internalType": "uint256",
          "name": "",
          "type": "uint256"
        }
      ],
      "stateMutability": "view",
      "type": "function",
      "constant": true
    },
    {
      "inputs": [
        {
          "internalType": "uint256",
          "name": "_electionId",
          "type": "uint256"
        }
      ],
      "name": "getElectionCanOne",
      "outputs": [
        {
          "internalType": "string",
          "name": "",
          "type": "string"
        }
      ],
      "stateMutability": "view",
      "type": "function",
      "constant": true
    },
    {
      "inputs": [
        {
          "internalType": "uint256",
          "name": "_electionId",
          "type": "uint256"
        }
      ],
      "name": "getElectionOneHash",
      "outputs": [
        {
          "internalType": "string",
          "name": "",
          "type": "string"
        }
      ],
      "stateMutability": "view",
      "type": "function",
      "constant": true
    },
    {
      "inputs": [
        {
          "internalType": "uint256",
          "name": "_electionId",
          "type": "uint256"
        }
      ],
      "name": "getElectionOneCount",
      "outputs": [
        {
          "internalType": "uint256",
          "name": "",
          "type": "uint256"
        }
      ],
      "stateMutability": "view",
      "type": "function",
      "constant": true
    },
    {
      "inputs": [
        {
          "internalType": "uint256",
          "name": "_electionId",
          "type": "uint256"
        }
      ],
      "name": "getElectionCanTwo",
      "outputs": [
        {
          "internalType": "string",
          "name": "",
          "type": "string"
        }
      ],
      "stateMutability": "view",
      "type": "function",
      "constant": true
    },
    {
      "inputs": [
        {
          "internalType": "uint256",
          "name": "_electionId",
          "type": "uint256"
        }
      ],
      "name": "getElectionTwoHash",
      "outputs": [
        {
          "internalType": "string",
          "name": "",
          "type": "string"
        }
      ],
      "stateMutability": "view",
      "type": "function",
      "constant": true
    },
    {
      "inputs": [
        {
          "internalType": "uint256",
          "name": "_electionId",
          "type": "uint256"
        }
      ],
      "name": "getElectionTwoCount",
      "outputs": [
        {
          "internalType": "uint256",
          "name": "",
          "type": "uint256"
        }
      ],
      "stateMutability": "view",
      "type": "function",
      "constant": true
    },
    {
      "inputs": [
        {
          "internalType": "uint256",
          "name": "_voterId",
          "type": "uint256"
        }
      ],
      "name": "getVoterAddress",
      "outputs": [
        {
          "internalType": "address",
          "name": "",
          "type": "address"
        }
      ],
      "stateMutability": "view",
      "type": "function",
      "constant": true
    },
    {
      "inputs": [
        {
          "internalType": "uint256",
          "name": "_voterId",
          "type": "uint256"
        }
      ],
      "name": "getVoterRegisteredElection",
      "outputs": [
        {
          "internalType": "uint256",
          "name": "",
          "type": "uint256"
        }
      ],
      "stateMutability": "view",
      "type": "function",
      "constant": true
    },
    {
      "inputs": [
        {
          "internalType": "uint256",
          "name": "_voterId",
          "type": "uint256"
        }
      ],
      "name": "getIsRegistered",
      "outputs": [
        {
          "internalType": "bool",
          "name": "",
          "type": "bool"
        }
      ],
      "stateMutability": "view",
      "type": "function",
      "constant": true
    },
    {
      "inputs": [
        {
          "internalType": "uint256",
          "name": "_voterId",
          "type": "uint256"
        }
      ],
      "name": "getIsVerified",
      "outputs": [
        {
          "internalType": "bool",
          "name": "",
          "type": "bool"
        }
      ],
      "stateMutability": "view",
      "type": "function",
      "constant": true
    },
    {
      "inputs": [
        {
          "internalType": "uint256",
          "name": "_voterId",
          "type": "uint256"
        }
      ],
      "name": "getHasVoted",
      "outputs": [
        {
          "internalType": "bool",
          "name": "",
          "type": "bool"
        }
      ],
      "stateMutability": "view",
      "type": "function",
      "constant": true
    },
    {
      "inputs": [
        {
          "internalType": "uint256",
          "name": "_voterId",
          "type": "uint256"
        }
      ],
      "name": "getTimeVoted",
      "outputs": [
        {
          "internalType": "uint256",
          "name": "",
          "type": "uint256"
        }
      ],
      "stateMutability": "view",
      "type": "function",
      "constant": true
    },
    {
      "inputs": [
        {
          "internalType": "address",
          "name": "_accountsAddress",
          "type": "address"
        }
      ],
      "name": "getAccountName",
      "outputs": [
        {
          "internalType": "string",
          "name": "",
          "type": "string"
        }
      ],
      "stateMutability": "view",
      "type": "function",
      "constant": true
    },
    {
      "inputs": [
        {
          "internalType": "address",
          "name": "_accountsAddress",
          "type": "address"
        }
      ],
      "name": "getAccountPhone",
      "outputs": [
        {
          "internalType": "string",
          "name": "",
          "type": "string"
        }
      ],
      "stateMutability": "view",
      "type": "function",
      "constant": true
    },
    {
      "inputs": [
        {
          "internalType": "address",
          "name": "_accountsAddress",
          "type": "address"
        }
      ],
      "name": "getAccountCountry",
      "outputs": [
        {
          "internalType": "string",
          "name": "",
          "type": "string"
        }
      ],
      "stateMutability": "view",
      "type": "function",
      "constant": true
    },
    {
      "inputs": [
        {
          "internalType": "address",
          "name": "_accountsAddress",
          "type": "address"
        }
      ],
      "name": "getAccountEmail",
      "outputs": [
        {
          "internalType": "string",
          "name": "",
          "type": "string"
        }
      ],
      "stateMutability": "view",
      "type": "function",
      "constant": true
    },
    {
      "inputs": [
        {
          "internalType": "address",
          "name": "_accountsAddress",
          "type": "address"
        }
      ],
      "name": "cantChange",
      "outputs": [
        {
          "internalType": "bool",
          "name": "",
          "type": "bool"
        }
      ],
      "stateMutability": "view",
      "type": "function",
      "constant": true
    }
  ],
  "bytecode": "0x608060405234801561001057600080fd5b50336000806101000a81548173ffffffffffffffffffffffffffffffffffffffff021916908373ffffffffffffffffffffffffffffffffffffffff160217905550600060018190555060006002819055506003339080600181540180825580915050600190039060005260206000200160009091909190916101000a81548173ffffffffffffffffffffffffffffffffffffffff021916908373ffffffffffffffffffffffffffffffffffffffff160217905550613903806100d36000396000f3fe608060405234801561001057600080fd5b506004361061023c5760003560e01c806382ae74081161013b578063ad7bbc29116100b8578063d7e40a691161007c578063d7e40a69146107aa578063d83b2c05146107da578063d8f7a0bb1461080a578063d989c8db14610826578063e0e1c1e2146108565761023c565b8063ad7bbc29146106e0578063ad9ae2a6146106fc578063c22b6b9d1461072c578063cf5c299d1461075c578063d67469ce1461078c5761023c565b80639c98bcbb116100ff5780639c98bcbb146106185780639cc1d5a9146106345780639fd9cf2d14610650578063a05767e914610680578063a66547f7146106b05761023c565b806382ae7408146105625780638433cb031461057e57806390b33d5f146105ae57806397a347b6146105de578063997d2830146105fa5761023c565b80634d94fc6a116101c95780636e9960c31161018d5780636e9960c3146104ab5780636efaad1e146104c957806370480275146104e55780637b70e36014610501578063807ba7e0146105315761023c565b80634d94fc6a146103cf57806368dc2a92146103ff5780636b0f02c21461042f5780636d32dc4b1461045f5780636e73ab4e1461047b5761023c565b806313e663331161021057806313e66333146102fd57806314bfd6d01461032d57806329575f6a1461035d578063322f029d1461037b57806342169e48146103b15761023c565b8062535947146102415780630119e0381461027c57806308458890146102b15780630f63e907146102cd575b600080fd5b61025b60048036038101906102569190612da2565b610886565b6040516102739c9b9a99989796959493929190612e92565b60405180910390f35b61029660048036038101906102919190612fcd565b610ba8565b6040516102a896959493929190613009565b60405180910390f35b6102cb60048036038101906102c69190612fcd565b610e31565b005b6102e760048036038101906102e29190612da2565b610f97565b6040516102f49190613086565b60405180910390f35b61031760048036038101906103129190612da2565b610fb7565b60405161032491906130a1565b60405180910390f35b61034760048036038101906103429190612da2565b61105f565b60405161035491906130c3565b60405180910390f35b61036561109e565b60405161037291906130c3565b60405180910390f35b61039560048036038101906103909190612da2565b6110c2565b6040516103a897969594939291906130de565b60405180910390f35b6103b961114b565b6040516103c69190613086565b60405180910390f35b6103e960048036038101906103e49190612da2565b611151565b6040516103f691906130a1565b60405180910390f35b61041960048036038101906104149190612da2565b6111f9565b6040516104269190613086565b60405180910390f35b61044960048036038101906104449190612fcd565b611219565b60405161045691906130a1565b60405180910390f35b61047960048036038101906104749190612da2565b6112ed565b005b61049560048036038101906104909190612da2565b611456565b6040516104a2919061314d565b60405180910390f35b6104b3611483565b6040516104c091906130c3565b60405180910390f35b6104e360048036038101906104de919061329d565b6114ac565b005b6104ff60048036038101906104fa9190612fcd565b61171c565b005b61051b60048036038101906105169190612da2565b611811565b604051610528919061314d565b60405180910390f35b61054b60048036038101906105469190612da2565b61183e565b604051610559929190613374565b60405180910390f35b61057c6004803603810190610577919061339d565b611882565b005b61059860048036038101906105939190612fcd565b611c5c565b6040516105a591906130a1565b60405180910390f35b6105c860048036038101906105c39190612da2565b611d30565b6040516105d591906130a1565b60405180910390f35b6105f860048036038101906105f391906133f0565b611dd8565b005b6106026120c2565b60405161060f9190613086565b60405180910390f35b610632600480360381019061062d9190612da2565b6120c8565b005b61064e600480360381019061064991906134f7565b612231565b005b61066a60048036038101906106659190612fcd565b612421565b60405161067791906130a1565b60405180910390f35b61069a60048036038101906106959190612da2565b6124f5565b6040516106a79190613086565b60405180910390f35b6106ca60048036038101906106c59190612da2565b612515565b6040516106d791906130a1565b60405180910390f35b6106fa60048036038101906106f59190612da2565b6125bd565b005b61071660048036038101906107119190612da2565b612601565b60405161072391906130a1565b60405180910390f35b61074660048036038101906107419190612fcd565b6126a9565b60405161075391906130a1565b60405180910390f35b61077660048036038101906107719190612da2565b61277d565b604051610783919061314d565b60405180910390f35b6107946127aa565b6040516107a19190613086565b60405180910390f35b6107c460048036038101906107bf9190612da2565b6127b7565b6040516107d19190613086565b60405180910390f35b6107f460048036038101906107ef9190612da2565b6127d7565b60405161080191906130c3565b60405180910390f35b610824600480360381019061081f9190612da2565b612817565b005b610840600480360381019061083b9190612fcd565b612b88565b60405161084d91906130a1565b60405180910390f35b610870600480360381019061086b9190612fcd565b612c5c565b60405161087d919061314d565b60405180910390f35b60046020528060005260406000206000915090508060000154908060010180546108af90613566565b80601f01602080910402602001604051908101604052809291908181526020018280546108db90613566565b80156109285780601f106108fd57610100808354040283529160200191610928565b820191906000526020600020905b81548152906001019060200180831161090b57829003601f168201915b50505050509080600201805461093d90613566565b80601f016020809104026020016040519081016040528092919081815260200182805461096990613566565b80156109b65780601f1061098b576101008083540402835291602001916109b6565b820191906000526020600020905b81548152906001019060200180831161099957829003601f168201915b5050505050908060030180546109cb90613566565b80601f01602080910402602001604051908101604052809291908181526020018280546109f790613566565b8015610a445780601f10610a1957610100808354040283529160200191610a44565b820191906000526020600020905b815481529060010190602001808311610a2757829003601f168201915b505050505090806004015490806005018054610a5f90613566565b80601f0160208091040260200160405190810160405280929190818152602001828054610a8b90613566565b8015610ad85780601f10610aad57610100808354040283529160200191610ad8565b820191906000526020600020905b815481529060010190602001808311610abb57829003601f168201915b505050505090806006018054610aed90613566565b80601f0160208091040260200160405190810160405280929190818152602001828054610b1990613566565b8015610b665780601f10610b3b57610100808354040283529160200191610b66565b820191906000526020600020905b815481529060010190602001808311610b4957829003601f168201915b50505050509080600701549080600801549080600901549080600a0160009054906101000a900460ff169080600a0160019054906101000a900460ff1690508c565b60066020528060005260406000206000915090508060000160009054906101000a900473ffffffffffffffffffffffffffffffffffffffff1690806001018054610bf190613566565b80601f0160208091040260200160405190810160405280929190818152602001828054610c1d90613566565b8015610c6a5780601f10610c3f57610100808354040283529160200191610c6a565b820191906000526020600020905b815481529060010190602001808311610c4d57829003601f168201915b505050505090806002018054610c7f90613566565b80601f0160208091040260200160405190810160405280929190818152602001828054610cab90613566565b8015610cf85780601f10610ccd57610100808354040283529160200191610cf8565b820191906000526020600020905b815481529060010190602001808311610cdb57829003601f168201915b505050505090806003018054610d0d90613566565b80601f0160208091040260200160405190810160405280929190818152602001828054610d3990613566565b8015610d865780601f10610d5b57610100808354040283529160200191610d86565b820191906000526020600020905b815481529060010190602001808311610d6957829003601f168201915b505050505090806004018054610d9b90613566565b80601f0160208091040260200160405190810160405280929190818152602001828054610dc790613566565b8015610e145780601f10610de957610100808354040283529160200191610e14565b820191906000526020600020905b815481529060010190602001808311610df757829003601f168201915b5050505050908060050160009054906101000a900460ff16905086565b60008054906101000a900473ffffffffffffffffffffffffffffffffffffffff1673ffffffffffffffffffffffffffffffffffffffff163373ffffffffffffffffffffffffffffffffffffffff1614610e8957600080fd5b336000805b600380549050811015610f255760038181548110610eaf57610eae613598565b5b9060005260206000200160009054906101000a900473ffffffffffffffffffffffffffffffffffffffff1673ffffffffffffffffffffffffffffffffffffffff168373ffffffffffffffffffffffffffffffffffffffff161415610f1257600191505b8080610f1d906135f6565b915050610e8e565b506001151581151514610f3757600080fd5b6000600660008573ffffffffffffffffffffffffffffffffffffffff1673ffffffffffffffffffffffffffffffffffffffff16815260200190815260200160002060050160006101000a81548160ff021916908315150217905550505050565b600060056000838152602001908152602001600020600401549050919050565b6060600460008381526020019081526020016000206005018054610fda90613566565b80601f016020809104026020016040519081016040528092919081815260200182805461100690613566565b80156110535780601f1061102857610100808354040283529160200191611053565b820191906000526020600020905b81548152906001019060200180831161103657829003601f168201915b50505050509050919050565b6003818154811061106f57600080fd5b906000526020600020016000915054906101000a900473ffffffffffffffffffffffffffffffffffffffff1681565b60008054906101000a900473ffffffffffffffffffffffffffffffffffffffff1681565b60056020528060005260406000206000915090508060000154908060010160009054906101000a900473ffffffffffffffffffffffffffffffffffffffff16908060020154908060030160009054906101000a900460ff16908060030160019054906101000a900460ff16908060030160029054906101000a900460ff16908060040154905087565b60025481565b606060046000838152602001908152602001600020600101805461117490613566565b80601f01602080910402602001604051908101604052809291908181526020018280546111a090613566565b80156111ed5780601f106111c2576101008083540402835291602001916111ed565b820191906000526020600020905b8154815290600101906020018083116111d057829003601f168201915b50505050509050919050565b600060046000838152602001908152602001600020600401549050919050565b6060600660008373ffffffffffffffffffffffffffffffffffffffff1673ffffffffffffffffffffffffffffffffffffffff168152602001908152602001600020600301805461126890613566565b80601f016020809104026020016040519081016040528092919081815260200182805461129490613566565b80156112e15780601f106112b6576101008083540402835291602001916112e1565b820191906000526020600020905b8154815290600101906020018083116112c457829003601f168201915b50505050509050919050565b60008054906101000a900473ffffffffffffffffffffffffffffffffffffffff1673ffffffffffffffffffffffffffffffffffffffff163373ffffffffffffffffffffffffffffffffffffffff161461134557600080fd5b336000805b6003805490508110156113e1576003818154811061136b5761136a613598565b5b9060005260206000200160009054906101000a900473ffffffffffffffffffffffffffffffffffffffff1673ffffffffffffffffffffffffffffffffffffffff168373ffffffffffffffffffffffffffffffffffffffff1614156113ce57600191505b80806113d9906135f6565b91505061134a565b5060011515811515146113f357600080fd5b600160046000858152602001908152602001600020600a0160006101000a81548160ff021916908315150217905550600060046000858152602001908152602001600020600a0160016101000a81548160ff021916908315150217905550505050565b60006005600083815260200190815260200160002060030160009054906101000a900460ff169050919050565b60008060009054906101000a900473ffffffffffffffffffffffffffffffffffffffff16905090565b60001515600660003373ffffffffffffffffffffffffffffffffffffffff1673ffffffffffffffffffffffffffffffffffffffff16815260200190815260200160002060050160009054906101000a900460ff1615151461150c57600080fd5b60006040518060c001604052803373ffffffffffffffffffffffffffffffffffffffff16815260200186815260200185815260200184815260200183815260200160011515815250905080600660003373ffffffffffffffffffffffffffffffffffffffff1673ffffffffffffffffffffffffffffffffffffffff16815260200190815260200160002060008201518160000160006101000a81548173ffffffffffffffffffffffffffffffffffffffff021916908373ffffffffffffffffffffffffffffffffffffffff16021790555060208201518160010190805190602001906115f9929190612cb5565b506040820151816002019080519060200190611616929190612cb5565b506060820151816003019080519060200190611633929190612cb5565b506080820151816004019080519060200190611650929190612cb5565b5060a08201518160050160006101000a81548160ff0219169083151502179055509050507f36cccb32f8c76fff9f1e0a60e95ef3785513a73e3acc125a1943f9b3a8fb4959600660003373ffffffffffffffffffffffffffffffffffffffff1673ffffffffffffffffffffffffffffffffffffffff16815260200190815260200160002060000160009054906101000a900473ffffffffffffffffffffffffffffffffffffffff168686868660405161170d95949392919061363f565b60405180910390a15050505050565b60008054906101000a900473ffffffffffffffffffffffffffffffffffffffff1673ffffffffffffffffffffffffffffffffffffffff163373ffffffffffffffffffffffffffffffffffffffff161461177457600080fd5b6003819080600181540180825580915050600190039060005260206000200160009091909190916101000a81548173ffffffffffffffffffffffffffffffffffffffff021916908373ffffffffffffffffffffffffffffffffffffffff1602179055507f143d142acdc85006451a907cb37ac28997d34407eeed0070ea10b3d10a38a2f98160405161180691906130c3565b60405180910390a150565b60006005600083815260200190815260200160002060030160029054906101000a900460ff169050919050565b60076020528060005260406000206000915090508060000154908060010160009054906101000a900473ffffffffffffffffffffffffffffffffffffffff16905082565b600015156005600085815260200190815260200160002060030160029054906101000a900460ff161515146118b657600080fd5b600115156005600085815260200190815260200160002060030160019054906101000a900460ff161515146118ea57600080fd5b6001151560046000848152602001908152602001600020600a0160009054906101000a900460ff1615151461191e57600080fd5b6000151560046000848152602001908152602001600020600a0160019054906101000a900460ff1615151461195257600080fd5b60606000821415611a3157600160046000858152602001908152602001600020600401600082825461198491906136ae565b925050819055506004600084815260200190815260200160002060020180546119ac90613566565b80601f01602080910402602001604051908101604052809291908181526020018280546119d890613566565b8015611a255780601f106119fa57610100808354040283529160200191611a25565b820191906000526020600020905b815481529060010190602001808311611a0857829003601f168201915b50505050509050611b10565b6001821415611b0e576001600460008581526020019081526020016000206007016000828254611a6191906136ae565b92505081905550600460008481526020019081526020016000206005018054611a8990613566565b80601f0160208091040260200160405190810160405280929190818152602001828054611ab590613566565b8015611b025780601f10611ad757610100808354040283529160200191611b02565b820191906000526020600020905b815481529060010190602001808311611ae557829003601f168201915b50505050509050611b0f565b5b5b6001600460008581526020019081526020016000206009016000828254611b3791906136ae565b9250508190555060016005600086815260200190815260200160002060030160026101000a81548160ff0219169083151502179055504260056000868152602001908152602001600020600401819055507f0b11b21c9cce9a1c22c5a963b687f91401d3144b4b9bfdcbe911496301a2462a6005600086815260200190815260200160002060010160009054906101000a900473ffffffffffffffffffffffffffffffffffffffff16600460008681526020019081526020016000206001018360046000888152602001908152602001600020600401546004600089815260200190815260200160002060070154600560008b815260200190815260200160002060040154604051611c4e96959493929190613799565b60405180910390a150505050565b6060600660008373ffffffffffffffffffffffffffffffffffffffff1673ffffffffffffffffffffffffffffffffffffffff1681526020019081526020016000206002018054611cab90613566565b80601f0160208091040260200160405190810160405280929190818152602001828054611cd790613566565b8015611d245780601f10611cf957610100808354040283529160200191611d24565b820191906000526020600020905b815481529060010190602001808311611d0757829003601f168201915b50505050509050919050565b6060600460008381526020019081526020016000206002018054611d5390613566565b80601f0160208091040260200160405190810160405280929190818152602001828054611d7f90613566565b8015611dcc5780601f10611da157610100808354040283529160200191611dcc565b820191906000526020600020905b815481529060010190602001808311611daf57829003601f168201915b50505050509050919050565b60008054906101000a900473ffffffffffffffffffffffffffffffffffffffff1673ffffffffffffffffffffffffffffffffffffffff163373ffffffffffffffffffffffffffffffffffffffff1614611e3057600080fd5b336000805b600380549050811015611ecc5760038181548110611e5657611e55613598565b5b9060005260206000200160009054906101000a900473ffffffffffffffffffffffffffffffffffffffff1673ffffffffffffffffffffffffffffffffffffffff168373ffffffffffffffffffffffffffffffffffffffff161415611eb957600191505b8080611ec4906135f6565b915050611e35565b506001151581151514611ede57600080fd5b600060405180610180016040528060015481526020018981526020018881526020018681526020016000815260200187815260200185815260200160008152602001600081526020016000815260200160001515815260200160001515815250905080600460006001548152602001908152602001600020600082015181600001556020820151816001019080519060200190611f7c929190612cb5565b506040820151816002019080519060200190611f99929190612cb5565b506060820151816003019080519060200190611fb6929190612cb5565b506080820151816004015560a0820151816005019080519060200190611fdd929190612cb5565b5060c0820151816006019080519060200190611ffa929190612cb5565b5060e082015181600701556101008201518160080155610120820151816009015561014082015181600a0160006101000a81548160ff02191690831515021790555061016082015181600a0160016101000a81548160ff021916908315150217905550905050600180600082825461207291906136ae565b925050819055507f144da72e50d9c22cd55e07cae9d431ab3baeaeedd85431af206a3d89b385cc186001548989896040516120b09493929190613808565b60405180910390a15050505050505050565b60015481565b60008054906101000a900473ffffffffffffffffffffffffffffffffffffffff1673ffffffffffffffffffffffffffffffffffffffff163373ffffffffffffffffffffffffffffffffffffffff161461212057600080fd5b336000805b6003805490508110156121bc576003818154811061214657612145613598565b5b9060005260206000200160009054906101000a900473ffffffffffffffffffffffffffffffffffffffff1673ffffffffffffffffffffffffffffffffffffffff168373ffffffffffffffffffffffffffffffffffffffff1614156121a957600191505b80806121b4906135f6565b915050612125565b5060011515811515146121ce57600080fd5b600160046000858152602001908152602001600020600a0160016101000a81548160ff021916908315150217905550600060046000858152602001908152602001600020600a0160006101000a81548160ff021916908315150217905550505050565b60008054906101000a900473ffffffffffffffffffffffffffffffffffffffff1673ffffffffffffffffffffffffffffffffffffffff163373ffffffffffffffffffffffffffffffffffffffff161461228957600080fd5b336000805b60038054905081101561232557600381815481106122af576122ae613598565b5b9060005260206000200160009054906101000a900473ffffffffffffffffffffffffffffffffffffffff1673ffffffffffffffffffffffffffffffffffffffff168373ffffffffffffffffffffffffffffffffffffffff16141561231257600191505b808061231d906135f6565b91505061228e565b50600115158115151461233757600080fd5b60016005600086815260200190815260200160002060030160016101000a81548160ff021916908315150217905550600160046000858152602001908152602001600020600801600082825461238d91906136ae565b925050819055507fd7420e77685cdf78985e5c4387cd429f43236a302e3e29d7be14bf32b8ff4ed1846005600087815260200190815260200160002060010160009054906101000a900473ffffffffffffffffffffffffffffffffffffffff16600560008881526020019081526020016000206002015460405161241393929190613862565b60405180910390a150505050565b6060600660008373ffffffffffffffffffffffffffffffffffffffff1673ffffffffffffffffffffffffffffffffffffffff168152602001908152602001600020600401805461247090613566565b80601f016020809104026020016040519081016040528092919081815260200182805461249c90613566565b80156124e95780601f106124be576101008083540402835291602001916124e9565b820191906000526020600020905b8154815290600101906020018083116124cc57829003601f168201915b50505050509050919050565b600060056000838152602001908152602001600020600201549050919050565b606060046000838152602001908152602001600020600301805461253890613566565b80601f016020809104026020016040519081016040528092919081815260200182805461256490613566565b80156125b15780601f10612586576101008083540402835291602001916125b1565b820191906000526020600020905b81548152906001019060200180831161259457829003601f168201915b50505050509050919050565b600381815481106125d1576125d0613598565b5b9060005260206000200160006101000a81549073ffffffffffffffffffffffffffffffffffffffff021916905550565b606060046000838152602001908152602001600020600601805461262490613566565b80601f016020809104026020016040519081016040528092919081815260200182805461265090613566565b801561269d5780601f106126725761010080835404028352916020019161269d565b820191906000526020600020905b81548152906001019060200180831161268057829003601f168201915b50505050509050919050565b6060600660008373ffffffffffffffffffffffffffffffffffffffff1673ffffffffffffffffffffffffffffffffffffffff16815260200190815260200160002060010180546126f890613566565b80601f016020809104026020016040519081016040528092919081815260200182805461272490613566565b80156127715780601f1061274657610100808354040283529160200191612771565b820191906000526020600020905b81548152906001019060200180831161275457829003601f168201915b50505050509050919050565b60006005600083815260200190815260200160002060030160019054906101000a900460ff169050919050565b6000600380549050905090565b600060046000838152602001908152602001600020600701549050919050565b60006005600083815260200190815260200160002060010160009054906101000a900473ffffffffffffffffffffffffffffffffffffffff169050919050565b60011515600660003373ffffffffffffffffffffffffffffffffffffffff1673ffffffffffffffffffffffffffffffffffffffff16815260200190815260200160002060050160009054906101000a900460ff1615151461287757600080fd5b6000151560046000838152602001908152602001600020600a0160009054906101000a900460ff1615151480156128d557506000151560046000838152602001908152602001600020600a0160019054906101000a900460ff161515145b6128de57600080fd5b6000805b60025481101561298d573373ffffffffffffffffffffffffffffffffffffffff166005600083815260200190815260200160002060010160009054906101000a900473ffffffffffffffffffffffffffffffffffffffff1673ffffffffffffffffffffffffffffffffffffffff16141561297a57826005600083815260200190815260200160002060020154141561297957600191505b5b8080612985906135f6565b9150506128e2565b50600015158115151415612b7f5760006040518060e0016040528060025481526020013373ffffffffffffffffffffffffffffffffffffffff16815260200184815260200160011515815260200160001515815260200160001515815260200160008152509050806005600060025481526020019081526020016000206000820151816000015560208201518160010160006101000a81548173ffffffffffffffffffffffffffffffffffffffff021916908373ffffffffffffffffffffffffffffffffffffffff1602179055506040820151816002015560608201518160030160006101000a81548160ff02191690831515021790555060808201518160030160016101000a81548160ff02191690831515021790555060a08201518160030160026101000a81548160ff02191690831515021790555060c08201518160040155905050600160026000828254612ae591906136ae565b925050819055507f65c85220814e0255ee13a1cb8d8c5a4070ac0c19211176df3a1d7f2e9411f00d6001600254612b1c9190613899565b600560006001600254612b2f9190613899565b815260200190815260200160002060010160009054906101000a900473ffffffffffffffffffffffffffffffffffffffff1685604051612b7193929190613862565b60405180910390a150612b84565b600080fd5b5050565b6060600660008373ffffffffffffffffffffffffffffffffffffffff1673ffffffffffffffffffffffffffffffffffffffff1681526020019081526020016000206001018054612bd790613566565b80601f0160208091040260200160405190810160405280929190818152602001828054612c0390613566565b8015612c505780601f10612c2557610100808354040283529160200191612c50565b820191906000526020600020905b815481529060010190602001808311612c3357829003601f168201915b50505050509050919050565b6000600660008373ffffffffffffffffffffffffffffffffffffffff1673ffffffffffffffffffffffffffffffffffffffff16815260200190815260200160002060050160009054906101000a900460ff169050919050565b828054612cc190613566565b90600052602060002090601f016020900481019282612ce35760008555612d2a565b82601f10612cfc57805160ff1916838001178555612d2a565b82800160010185558215612d2a579182015b82811115612d29578251825591602001919060010190612d0e565b5b509050612d379190612d3b565b5090565b5b80821115612d54576000816000905550600101612d3c565b5090565b6000604051905090565b600080fd5b600080fd5b6000819050919050565b612d7f81612d6c565b8114612d8a57600080fd5b50565b600081359050612d9c81612d76565b92915050565b600060208284031215612db857612db7612d62565b5b6000612dc684828501612d8d565b91505092915050565b612dd881612d6c565b82525050565b600081519050919050565b600082825260208201905092915050565b60005b83811015612e18578082015181840152602081019050612dfd565b83811115612e27576000848401525b50505050565b6000601f19601f8301169050919050565b6000612e4982612dde565b612e538185612de9565b9350612e63818560208601612dfa565b612e6c81612e2d565b840191505092915050565b60008115159050919050565b612e8c81612e77565b82525050565b600061018082019050612ea8600083018f612dcf565b8181036020830152612eba818e612e3e565b90508181036040830152612ece818d612e3e565b90508181036060830152612ee2818c612e3e565b9050612ef1608083018b612dcf565b81810360a0830152612f03818a612e3e565b905081810360c0830152612f178189612e3e565b9050612f2660e0830188612dcf565b612f34610100830187612dcf565b612f42610120830186612dcf565b612f50610140830185612e83565b612f5e610160830184612e83565b9d9c50505050505050505050505050565b600073ffffffffffffffffffffffffffffffffffffffff82169050919050565b6000612f9a82612f6f565b9050919050565b612faa81612f8f565b8114612fb557600080fd5b50565b600081359050612fc781612fa1565b92915050565b600060208284031215612fe357612fe2612d62565b5b6000612ff184828501612fb8565b91505092915050565b61300381612f8f565b82525050565b600060c08201905061301e6000830189612ffa565b81810360208301526130308188612e3e565b905081810360408301526130448187612e3e565b905081810360608301526130588186612e3e565b9050818103608083015261306c8185612e3e565b905061307b60a0830184612e83565b979650505050505050565b600060208201905061309b6000830184612dcf565b92915050565b600060208201905081810360008301526130bb8184612e3e565b905092915050565b60006020820190506130d86000830184612ffa565b92915050565b600060e0820190506130f3600083018a612dcf565b6131006020830189612ffa565b61310d6040830188612dcf565b61311a6060830187612e83565b6131276080830186612e83565b61313460a0830185612e83565b61314160c0830184612dcf565b98975050505050505050565b60006020820190506131626000830184612e83565b92915050565b600080fd5b600080fd5b7f4e487b7100000000000000000000000000000000000000000000000000000000600052604160045260246000fd5b6131aa82612e2d565b810181811067ffffffffffffffff821117156131c9576131c8613172565b5b80604052505050565b60006131dc612d58565b90506131e882826131a1565b919050565b600067ffffffffffffffff82111561320857613207613172565b5b61321182612e2d565b9050602081019050919050565b82818337600083830152505050565b600061324061323b846131ed565b6131d2565b90508281526020810184848401111561325c5761325b61316d565b5b61326784828561321e565b509392505050565b600082601f83011261328457613283613168565b5b813561329484826020860161322d565b91505092915050565b600080600080608085870312156132b7576132b6612d62565b5b600085013567ffffffffffffffff8111156132d5576132d4612d67565b5b6132e18782880161326f565b945050602085013567ffffffffffffffff81111561330257613301612d67565b5b61330e8782880161326f565b935050604085013567ffffffffffffffff81111561332f5761332e612d67565b5b61333b8782880161326f565b925050606085013567ffffffffffffffff81111561335c5761335b612d67565b5b6133688782880161326f565b91505092959194509250565b60006040820190506133896000830185612dcf565b6133966020830184612ffa565b9392505050565b6000806000606084860312156133b6576133b5612d62565b5b60006133c486828701612d8d565b93505060206133d586828701612d8d565b92505060406133e686828701612d8d565b9150509250925092565b600080600080600060a0868803121561340c5761340b612d62565b5b600086013567ffffffffffffffff81111561342a57613429612d67565b5b6134368882890161326f565b955050602086013567ffffffffffffffff81111561345757613456612d67565b5b6134638882890161326f565b945050604086013567ffffffffffffffff81111561348457613483612d67565b5b6134908882890161326f565b935050606086013567ffffffffffffffff8111156134b1576134b0612d67565b5b6134bd8882890161326f565b925050608086013567ffffffffffffffff8111156134de576134dd612d67565b5b6134ea8882890161326f565b9150509295509295909350565b6000806040838503121561350e5761350d612d62565b5b600061351c85828601612d8d565b925050602061352d85828601612d8d565b9150509250929050565b7f4e487b7100000000000000000000000000000000000000000000000000000000600052602260045260246000fd5b6000600282049050600182168061357e57607f821691505b6020821081141561359257613591613537565b5b50919050565b7f4e487b7100000000000000000000000000000000000000000000000000000000600052603260045260246000fd5b7f4e487b7100000000000000000000000000000000000000000000000000000000600052601160045260246000fd5b600061360182612d6c565b91507fffffffffffffffffffffffffffffffffffffffffffffffffffffffffffffffff821415613634576136336135c7565b5b600182019050919050565b600060a0820190506136546000830188612ffa565b81810360208301526136668187612e3e565b9050818103604083015261367a8186612e3e565b9050818103606083015261368e8185612e3e565b905081810360808301526136a28184612e3e565b90509695505050505050565b60006136b982612d6c565b91506136c483612d6c565b9250827fffffffffffffffffffffffffffffffffffffffffffffffffffffffffffffffff038211156136f9576136f86135c7565b5b828201905092915050565b60008190508160005260206000209050919050565b6000815461372681613566565b6137308186612de9565b9450600182166000811461374b576001811461375d57613790565b60ff1983168652602086019350613790565b61376685613704565b60005b8381101561378857815481890152600182019150602081019050613769565b808801955050505b50505092915050565b600060c0820190506137ae6000830189612ffa565b81810360208301526137c08188613719565b905081810360408301526137d48187612e3e565b90506137e36060830186612dcf565b6137f06080830185612dcf565b6137fd60a0830184612dcf565b979650505050505050565b600060808201905061381d6000830187612dcf565b818103602083015261382f8186612e3e565b905081810360408301526138438185612e3e565b905081810360608301526138578184612e3e565b905095945050505050565b60006060820190506138776000830186612dcf565b6138846020830185612ffa565b6138916040830184612dcf565b949350505050565b60006138a482612d6c565b91506138af83612d6c565b9250828210156138c2576138c16135c7565b5b82820390509291505056fea26469706673582212205d82381c5bd79599b3a10cb55edd0086de2243c7e594eeb0706d14e4b19c580a64736f6c634300080b0033",
  "immutableReferences": {},
  "source": "pragma solidity >=0.4.21 <0.9.0;\r\n\r\ncontract ElectionCon {\r\n    address public superAdmin;\r\n    uint256 public electionCount;\r\n    uint256 public voterCount;\r\n    address[] public admins;\r\n    \r\n\r\n    constructor() public {\r\n        superAdmin = msg.sender;\r\n        electionCount = 0;\r\n        voterCount = 0;\r\n        admins.push(msg.sender);\r\n    }\r\n\r\n    function getAdmin() public view returns (address) {\r\n        return superAdmin;\r\n    }\r\n\r\n    modifier onlyAdmin() {\r\n        require(msg.sender == superAdmin);\r\n        _;\r\n    }\r\n\r\n    modifier normalAdmin(address _address) {\r\n        bool isAdmin = false;\r\n        for (uint i = 0; i < admins.length; i++) {\r\n            if (_address == admins[i]){\r\n                isAdmin = true;\r\n            }\r\n        }\r\n        require(isAdmin == true);\r\n        _;\r\n    }\r\n\r\n    //EMITS\r\n    event EmitAddAdmin(address _admin);\r\n\r\n    event EmitVoted(\r\n        address _voter, \r\n        string _electionTitle, \r\n        string _candidateName, \r\n        uint256 _electionCanOneCount, \r\n        uint256 _electionCanTwoCount,\r\n        uint _timeVoted\r\n    );\r\n\r\n    event EmitNewElections(\r\n        uint256 electionId,\r\n        string electionTitle,\r\n        string electionCanOne,\r\n        string electionCanTwo\r\n    );\r\n\r\n    event EmitRegisteredVoter(\r\n        uint256 voterId,\r\n        address voterAddress,\r\n        uint256 registeredElection\r\n    );\r\n\r\n    event EmitVerifiedVoters(\r\n        uint256 voterId,\r\n        address voterAddress,\r\n        uint256 registeredElection\r\n    );\r\n\r\n    event EmitModifiedAccounts(\r\n        address accountAddress,\r\n        string accountName,\r\n        string accountPhone,\r\n        string accountCountry,\r\n        string accountEmail\r\n    );\r\n\r\n\r\n    //STRUCTS\r\n    struct Election {\r\n        uint256 electionId;\r\n        string electionTitle;\r\n        string electionCanOne;\r\n        string electionCanOneHash;\r\n        uint256 electionCanOneCount;\r\n        string electionCanTwo;\r\n        string electionCanTwoHash;\r\n        uint256 electionCanTwoCount;\r\n        uint256 voterCount;\r\n        uint256 votedCount;\r\n        bool start;\r\n        bool end;\r\n    }\r\n    mapping(uint256 => Election) public electionDetails;\r\n\r\n    struct Voter {\r\n        uint256 voterId;\r\n        address voterAddress;\r\n        uint256 registeredElection;\r\n        bool isRegistered;\r\n        bool isVerified;\r\n        bool hasVoted;\r\n        uint timeVoted;\r\n    }\r\n    mapping(uint256 => Voter) public voterDetails;\r\n\r\n    struct Accounts {\r\n        address accountAddress;\r\n        string accountName;\r\n        string accountPhone;\r\n        string accountCountry;\r\n        string accountEmail;\r\n        bool cantChange;\r\n    }\r\n    mapping(address => Accounts) public accountsDetails;\r\n\r\n    struct Admins {\r\n        uint256 adminId;\r\n        address adminAddress;\r\n    }\r\n    mapping(uint256 => Admins) public adminDetails;\r\n\r\n\r\n    //FUNCTIONS FOR ADD\r\n    function addElection(\r\n        string memory _electionTitle,\r\n        string memory _electionCanOne,\r\n        string memory _electionCanTwo,\r\n        string memory _electionCanOneHash,\r\n        string memory _electionCanTwoHash\r\n    ) public onlyAdmin normalAdmin(msg.sender) {\r\n        Election memory newElection =\r\n            Election({\r\n                electionId: electionCount,\r\n                electionTitle: _electionTitle,\r\n                electionCanOne: _electionCanOne,\r\n                electionCanOneHash: _electionCanOneHash,\r\n                electionCanOneCount: 0,\r\n                electionCanTwo: _electionCanTwo,\r\n                electionCanTwoHash: _electionCanTwoHash,\r\n                electionCanTwoCount: 0,\r\n                voterCount: 0,\r\n                votedCount: 0,\r\n                start: false,\r\n                end: false\r\n            });\r\n        electionDetails[electionCount] = newElection;\r\n        electionCount += 1;\r\n\r\n        emit EmitNewElections(\r\n            electionCount,\r\n            _electionTitle,\r\n            _electionCanOne,\r\n            _electionCanTwo\r\n        );\r\n    }\r\n\r\n    function addVoter(\r\n        uint256 _registeredElection\r\n    ) public {\r\n        require(accountsDetails[msg.sender].cantChange == true);\r\n        require(electionDetails[_registeredElection].start == false && electionDetails[_registeredElection].end == false );\r\n        bool hasRegistered = false;\r\n        for (uint i; i < voterCount; i++) {\r\n            if (voterDetails[i].voterAddress == msg.sender ) {\r\n                if (voterDetails[i].registeredElection == _registeredElection) {\r\n                    hasRegistered = true;\r\n                }\r\n            }\r\n        }\r\n        if (hasRegistered == false) {\r\n            Voter memory newVoter =\r\n                Voter({\r\n                    voterId: voterCount,\r\n                    voterAddress: msg.sender,\r\n                    registeredElection: _registeredElection,\r\n                    isRegistered: true,\r\n                    isVerified: false,\r\n                    hasVoted: false,\r\n                    timeVoted: 0\r\n                });\r\n            voterDetails[voterCount] = newVoter;\r\n            voterCount += 1;\r\n\r\n            emit EmitRegisteredVoter(\r\n                voterCount-1,\r\n                voterDetails[voterCount-1].voterAddress,\r\n                _registeredElection\r\n            );\r\n        } else {\r\n            revert();\r\n        }\r\n    }\r\n\r\n    function addAccounts(\r\n        string memory _accountName,\r\n        string memory _accountPhone,\r\n        string memory _accountCountry,\r\n        string memory _accountEmail\r\n    ) public {\r\n        require(accountsDetails[msg.sender].cantChange == false);\r\n        Accounts memory newAccount =\r\n            Accounts({\r\n                accountAddress: msg.sender,\r\n                accountName: _accountName,\r\n                accountPhone: _accountPhone,\r\n                accountCountry: _accountCountry,\r\n                accountEmail: _accountEmail,\r\n                cantChange: true\r\n            });\r\n        accountsDetails[msg.sender] = newAccount;\r\n\r\n        emit EmitModifiedAccounts(\r\n            accountsDetails[msg.sender].accountAddress,\r\n            _accountName,\r\n            _accountPhone,\r\n            _accountCountry,\r\n            _accountEmail\r\n        );\r\n    }\r\n\r\n    function addAdmin(address _adminAddress) public onlyAdmin {\r\n        admins.push(_adminAddress);\r\n        emit EmitAddAdmin(_adminAddress);\r\n    }\r\n\r\n    function removeAdmin(uint256 _adminIndex) public {\r\n        delete admins[_adminIndex];\r\n    }\r\n\r\n\r\n    //FUNCTION FOR VOTES\r\n    function verifyVoter(\r\n        uint256 _voterId,\r\n        uint256 _electionId\r\n    ) public onlyAdmin normalAdmin(msg.sender) {\r\n        /*require that both exists*/\r\n        voterDetails[_voterId].isVerified = true;\r\n        electionDetails[_electionId].voterCount += 1;\r\n\r\n        emit EmitVerifiedVoters(\r\n            _voterId,\r\n            voterDetails[_voterId].voterAddress,\r\n            voterDetails[_voterId].registeredElection\r\n        );\r\n    }\r\n\r\n    function voteElection(uint256 _voterId, uint256 _electionId, uint256 _candidate) public {\r\n        require(voterDetails[_voterId].hasVoted == false);\r\n        require(voterDetails[_voterId].isVerified == true);\r\n        require(electionDetails[_electionId].start == true);\r\n        require(electionDetails[_electionId].end == false);\r\n        string memory _candidateName;\r\n        if (_candidate == 0) {\r\n            electionDetails[_electionId].electionCanOneCount += 1;\r\n            _candidateName = electionDetails[_electionId].electionCanOne;\r\n        } else if (_candidate == 1) {\r\n            electionDetails[_electionId].electionCanTwoCount += 1;\r\n            _candidateName = electionDetails[_electionId].electionCanTwo;\r\n        } else {}\r\n        electionDetails[_electionId].votedCount += 1;\r\n        voterDetails[_voterId].hasVoted = true;\r\n        voterDetails[_voterId].timeVoted = block.timestamp;\r\n\r\n        emit EmitVoted(\r\n            voterDetails[_voterId].voterAddress, \r\n            electionDetails[_electionId].electionTitle, \r\n            _candidateName, \r\n            electionDetails[_electionId].electionCanOneCount, \r\n            electionDetails[_electionId].electionCanTwoCount,\r\n            voterDetails[_voterId].timeVoted\r\n            );\r\n    }\r\n\r\n\r\n    //FUNCTION FOR MODIFYING\r\n    function allowChange(address _accountAddress) public onlyAdmin normalAdmin(msg.sender){\r\n        accountsDetails[_accountAddress].cantChange = false;\r\n    }\r\n\r\n    \r\n    //FUNCTION FOR ELECTIONS\r\n    function startElection(uint256 _electionId) public onlyAdmin normalAdmin(msg.sender) {\r\n        electionDetails[_electionId].start = true;\r\n        electionDetails[_electionId].end = false;\r\n    }\r\n\r\n    function endElection(uint256 _electionId) public onlyAdmin normalAdmin(msg.sender) {\r\n        electionDetails[_electionId].end = true;\r\n        electionDetails[_electionId].start = false;\r\n    }\r\n\r\n\r\n    //FUNCTION FOR GETS\r\n    function getElectionTitle(uint256 _electionId) public view returns (string memory) {\r\n        return electionDetails[_electionId].electionTitle;\r\n    }\r\n    \r\n    function getVoterName(address _voterAddress) public view returns (string memory) {\r\n        return accountsDetails[_voterAddress].accountName;\r\n    }\r\n\r\n    function getAdminLength() public view returns (uint256) {\r\n        return admins.length;\r\n    }\r\n\r\n    function getElectionCanOne(uint256 _electionId) public view returns (string memory) {\r\n        return electionDetails[_electionId].electionCanOne;\r\n    }\r\n\r\n    function getElectionOneHash(uint256 _electionId) public view returns (string memory) {\r\n        return electionDetails[_electionId].electionCanOneHash;\r\n    }\r\n\r\n    function getElectionOneCount(uint256 _electionId) public view returns (uint256) {\r\n        return electionDetails[_electionId].electionCanOneCount;\r\n    }\r\n\r\n    function getElectionCanTwo(uint256 _electionId) public view returns (string memory) {\r\n        return electionDetails[_electionId].electionCanTwo;\r\n    }\r\n\r\n    function getElectionTwoHash(uint256 _electionId) public view returns (string memory) {\r\n        return electionDetails[_electionId].electionCanTwoHash;\r\n    }\r\n\r\n    function getElectionTwoCount(uint256 _electionId) public view returns (uint256) {\r\n        return electionDetails[_electionId].electionCanTwoCount;\r\n    }\r\n\r\n    function getVoterAddress(uint256 _voterId) public view returns (address) {\r\n        return voterDetails[_voterId].voterAddress;\r\n    }\r\n\r\n    function getVoterRegisteredElection(uint256 _voterId) public view returns (uint256) {\r\n        return voterDetails[_voterId].registeredElection;\r\n    }\r\n\r\n    function getIsRegistered(uint256 _voterId) public view returns (bool) {\r\n        return voterDetails[_voterId].isRegistered;\r\n    }\r\n\r\n    function getIsVerified(uint256 _voterId) public view returns (bool) {\r\n        return voterDetails[_voterId].isVerified;\r\n    }\r\n\r\n    function getHasVoted(uint256 _voterId) public view returns (bool) {\r\n        return voterDetails[_voterId].hasVoted;\r\n    }\r\n\r\n    function getTimeVoted(uint256 _voterId) public view returns (uint) {\r\n        return voterDetails[_voterId].timeVoted;\r\n    }\r\n\r\n    function getAccountName(address _accountsAddress) public view returns (string memory) {\r\n        return accountsDetails[_accountsAddress].accountName;\r\n    }\r\n\r\n    function getAccountPhone(address _accountsAddress) public view returns (string memory) {\r\n        return accountsDetails[_accountsAddress].accountPhone;\r\n    }\r\n\r\n    function getAccountCountry(address _accountsAddress) public view returns (string memory) {\r\n        return accountsDetails[_accountsAddress].accountCountry;\r\n    }\r\n\r\n    function getAccountEmail(address _accountsAddress) public view returns (string memory) {\r\n        return accountsDetails[_accountsAddress].accountEmail;\r\n    }\r\n\r\n    function cantChange(address _accountsAddress) public view returns (bool) {\r\n        return accountsDetails[_accountsAddress].cantChange;\r\n    }\r\n\r\n}\r\n",
  "sourcePath": "C:\\Users\\Ben\\Desktop\\Y3S2\\FYP\\APVote\\apvote-smartContract\\contracts\\ElectionCon.sol",
  "compiler": {
    "name": "solc",
    "version": "0.8.11+commit.d7f03943.Emscripten.clang"
  },
  "schemaVersion": "3.4.6",
  "updatedAt": "2022-04-10T09:06:04.110Z",
  "networkType": "ethereum",
  "devdoc": {
    "kind": "dev",
    "methods": {},
    "version": 1
  },
  "userdoc": {
    "kind": "user",
    "methods": {},
    "version": 1
  }
}