{
  "contractName": "ElectionCon",
  "abi": [
    {
      "inputs": [],
      "stateMutability": "nonpayable",
      "type": "constructor"
    },
    {
      "inputs": [
        {
          "internalType": "address",
          "name": "",
          "type": "address"
        }
      ],
      "name": "accountsDetails",
      "outputs": [
        {
          "internalType": "uint256",
          "name": "accountId",
          "type": "uint256"
        },
        {
          "internalType": "address",
          "name": "accountAddress",
          "type": "address"
        },
        {
          "internalType": "string",
          "name": "accountName",
          "type": "string"
        },
        {
          "internalType": "string",
          "name": "accountPhone",
          "type": "string"
        },
        {
          "internalType": "string",
          "name": "accountCountry",
          "type": "string"
        },
        {
          "internalType": "string",
          "name": "accountEmail",
          "type": "string"
        }
      ],
      "stateMutability": "view",
      "type": "function",
      "constant": true
    },
    {
      "inputs": [
        {
          "internalType": "uint256",
          "name": "",
          "type": "uint256"
        }
      ],
      "name": "electionDetails",
      "outputs": [
        {
          "internalType": "uint256",
          "name": "electionId",
          "type": "uint256"
        },
        {
          "internalType": "string",
          "name": "electionTitle",
          "type": "string"
        },
        {
          "internalType": "string",
          "name": "orgTitle",
          "type": "string"
        },
        {
          "internalType": "string",
          "name": "electionCanOne",
          "type": "string"
        },
        {
          "internalType": "uint256",
          "name": "electionCanOneCount",
          "type": "uint256"
        },
        {
          "internalType": "string",
          "name": "electionCanTwo",
          "type": "string"
        },
        {
          "internalType": "uint256",
          "name": "electionCanTwoCount",
          "type": "uint256"
        },
        {
          "internalType": "uint256",
          "name": "voterCount",
          "type": "uint256"
        },
        {
          "internalType": "uint256",
          "name": "votedCount",
          "type": "uint256"
        },
        {
          "internalType": "bool",
          "name": "start",
          "type": "bool"
        },
        {
          "internalType": "bool",
          "name": "end",
          "type": "bool"
        }
      ],
      "stateMutability": "view",
      "type": "function",
      "constant": true
    },
    {
      "inputs": [],
      "name": "superAdmin",
      "outputs": [
        {
          "internalType": "address",
          "name": "",
          "type": "address"
        }
      ],
      "stateMutability": "view",
      "type": "function",
      "constant": true
    },
    {
      "inputs": [
        {
          "internalType": "uint256",
          "name": "",
          "type": "uint256"
        }
      ],
      "name": "voterDetails",
      "outputs": [
        {
          "internalType": "uint256",
          "name": "voterId",
          "type": "uint256"
        },
        {
          "internalType": "address",
          "name": "voterAddress",
          "type": "address"
        },
        {
          "internalType": "uint256",
          "name": "registeredElection",
          "type": "uint256"
        },
        {
          "internalType": "bool",
          "name": "isRegistered",
          "type": "bool"
        },
        {
          "internalType": "bool",
          "name": "isVerified",
          "type": "bool"
        },
        {
          "internalType": "bool",
          "name": "hasVoted",
          "type": "bool"
        }
      ],
      "stateMutability": "view",
      "type": "function",
      "constant": true
    },
    {
      "inputs": [],
      "name": "getAdmin",
      "outputs": [
        {
          "internalType": "address",
          "name": "",
          "type": "address"
        }
      ],
      "stateMutability": "view",
      "type": "function",
      "constant": true
    },
    {
      "inputs": [
        {
          "internalType": "string",
          "name": "_electionTitle",
          "type": "string"
        },
        {
          "internalType": "string",
          "name": "_orgTitle",
          "type": "string"
        },
        {
          "internalType": "string",
          "name": "_electionCanOne",
          "type": "string"
        },
        {
          "internalType": "string",
          "name": "_electionCanTwo",
          "type": "string"
        }
      ],
      "name": "addElection",
      "outputs": [],
      "stateMutability": "nonpayable",
      "type": "function"
    },
    {
      "inputs": [
        {
          "internalType": "uint256",
          "name": "_registeredElection",
          "type": "uint256"
        }
      ],
      "name": "addVoter",
      "outputs": [],
      "stateMutability": "nonpayable",
      "type": "function"
    },
    {
      "inputs": [
        {
          "internalType": "string",
          "name": "_accountName",
          "type": "string"
        },
        {
          "internalType": "string",
          "name": "_accountPhone",
          "type": "string"
        },
        {
          "internalType": "string",
          "name": "_accountCountry",
          "type": "string"
        },
        {
          "internalType": "string",
          "name": "_accountEmail",
          "type": "string"
        }
      ],
      "name": "addAccounts",
      "outputs": [],
      "stateMutability": "nonpayable",
      "type": "function"
    },
    {
      "inputs": [
        {
          "internalType": "uint256",
          "name": "_voterId",
          "type": "uint256"
        },
        {
          "internalType": "uint256",
          "name": "_electionId",
          "type": "uint256"
        }
      ],
      "name": "verifyVoter",
      "outputs": [],
      "stateMutability": "nonpayable",
      "type": "function"
    },
    {
      "inputs": [
        {
          "internalType": "uint256",
          "name": "_voterId",
          "type": "uint256"
        },
        {
          "internalType": "uint256",
          "name": "_electionId",
          "type": "uint256"
        },
        {
          "internalType": "uint256",
          "name": "_candidate",
          "type": "uint256"
        }
      ],
      "name": "voteElection",
      "outputs": [],
      "stateMutability": "nonpayable",
      "type": "function"
    },
    {
      "inputs": [
        {
          "internalType": "uint256",
          "name": "_electionId",
          "type": "uint256"
        }
      ],
      "name": "startElection",
      "outputs": [],
      "stateMutability": "nonpayable",
      "type": "function"
    },
    {
      "inputs": [
        {
          "internalType": "uint256",
          "name": "_electionId",
          "type": "uint256"
        }
      ],
      "name": "endElection",
      "outputs": [],
      "stateMutability": "nonpayable",
      "type": "function"
    }
  ],
  "bytecode": "0x608060405234801561001057600080fd5b50336000806101000a81548173ffffffffffffffffffffffffffffffffffffffff021916908373ffffffffffffffffffffffffffffffffffffffff160217905550600060018190555060006002819055506000600381905550611891806100786000396000f3fe608060405234801561001057600080fd5b50600436106100b35760003560e01c80636efaad1e116100715780636efaad1e146101b457806382ae7408146101d05780639c98bcbb146101ec5780639cc1d5a914610208578063a50a69d314610224578063d8f7a0bb14610240576100b3565b8062535947146100b85780630119e038146100f257806329575f6a14610127578063322f029d146101455780636d32dc4b1461017a5780636e9960c314610196575b600080fd5b6100d260048036038101906100cd919061118c565b61025c565b6040516100e99b9a9998979695949392919061127c565b60405180910390f35b61010c600480360381019061010791906113a1565b6104f0565b60405161011e969594939291906113dd565b60405180910390f35b61012f61076c565b60405161013c919061145a565b60405180910390f35b61015f600480360381019061015a919061118c565b610790565b60405161017196959493929190611475565b60405180910390f35b610194600480360381019061018f919061118c565b610813565b005b61019e6108cc565b6040516101ab919061145a565b60405180910390f35b6101ce60048036038101906101c9919061160b565b6108f5565b005b6101ea60048036038101906101e591906116e2565b610a67565b005b6102066004803603810190610201919061118c565b610c13565b005b610222600480360381019061021d9190611735565b610ccc565b005b61023e6004803603810190610239919061160b565b610d85565b005b61025a6004803603810190610255919061118c565b610f5b565b005b6004602052806000526040600020600091509050806000015490806001018054610285906117a4565b80601f01602080910402602001604051908101604052809291908181526020018280546102b1906117a4565b80156102fe5780601f106102d3576101008083540402835291602001916102fe565b820191906000526020600020905b8154815290600101906020018083116102e157829003601f168201915b505050505090806002018054610313906117a4565b80601f016020809104026020016040519081016040528092919081815260200182805461033f906117a4565b801561038c5780601f106103615761010080835404028352916020019161038c565b820191906000526020600020905b81548152906001019060200180831161036f57829003601f168201915b5050505050908060030180546103a1906117a4565b80601f01602080910402602001604051908101604052809291908181526020018280546103cd906117a4565b801561041a5780601f106103ef5761010080835404028352916020019161041a565b820191906000526020600020905b8154815290600101906020018083116103fd57829003601f168201915b505050505090806004015490806005018054610435906117a4565b80601f0160208091040260200160405190810160405280929190818152602001828054610461906117a4565b80156104ae5780601f10610483576101008083540402835291602001916104ae565b820191906000526020600020905b81548152906001019060200180831161049157829003601f168201915b5050505050908060060154908060070154908060080154908060090160009054906101000a900460ff16908060090160019054906101000a900460ff1690508b565b60066020528060005260406000206000915090508060000154908060010160009054906101000a900473ffffffffffffffffffffffffffffffffffffffff169080600201805461053f906117a4565b80601f016020809104026020016040519081016040528092919081815260200182805461056b906117a4565b80156105b85780601f1061058d576101008083540402835291602001916105b8565b820191906000526020600020905b81548152906001019060200180831161059b57829003601f168201915b5050505050908060030180546105cd906117a4565b80601f01602080910402602001604051908101604052809291908181526020018280546105f9906117a4565b80156106465780601f1061061b57610100808354040283529160200191610646565b820191906000526020600020905b81548152906001019060200180831161062957829003601f168201915b50505050509080600401805461065b906117a4565b80601f0160208091040260200160405190810160405280929190818152602001828054610687906117a4565b80156106d45780601f106106a9576101008083540402835291602001916106d4565b820191906000526020600020905b8154815290600101906020018083116106b757829003601f168201915b5050505050908060050180546106e9906117a4565b80601f0160208091040260200160405190810160405280929190818152602001828054610715906117a4565b80156107625780601f1061073757610100808354040283529160200191610762565b820191906000526020600020905b81548152906001019060200180831161074557829003601f168201915b5050505050905086565b60008054906101000a900473ffffffffffffffffffffffffffffffffffffffff1681565b60056020528060005260406000206000915090508060000154908060010160009054906101000a900473ffffffffffffffffffffffffffffffffffffffff16908060020154908060030160009054906101000a900460ff16908060030160019054906101000a900460ff16908060030160029054906101000a900460ff16905086565b60008054906101000a900473ffffffffffffffffffffffffffffffffffffffff1673ffffffffffffffffffffffffffffffffffffffff163373ffffffffffffffffffffffffffffffffffffffff161461086b57600080fd5b60016004600083815260200190815260200160002060090160006101000a81548160ff02191690831515021790555060006004600083815260200190815260200160002060090160016101000a81548160ff02191690831515021790555050565b60008060009054906101000a900473ffffffffffffffffffffffffffffffffffffffff16905090565b60006040518060c0016040528060035481526020013373ffffffffffffffffffffffffffffffffffffffff16815260200186815260200185815260200184815260200183815250905080600660003373ffffffffffffffffffffffffffffffffffffffff1673ffffffffffffffffffffffffffffffffffffffff1681526020019081526020016000206000820151816000015560208201518160010160006101000a81548173ffffffffffffffffffffffffffffffffffffffff021916908373ffffffffffffffffffffffffffffffffffffffff16021790555060408201518160020190805190602001906109eb92919061109f565b506060820151816003019080519060200190610a0892919061109f565b506080820151816004019080519060200190610a2592919061109f565b5060a0820151816005019080519060200190610a4292919061109f565b50905050600160036000828254610a599190611805565b925050819055505050505050565b600015156005600085815260200190815260200160002060030160029054906101000a900460ff16151514610a9b57600080fd5b600115156005600085815260200190815260200160002060030160019054906101000a900460ff16151514610acf57600080fd5b600115156004600084815260200190815260200160002060090160009054906101000a900460ff16151514610b0357600080fd5b600015156004600084815260200190815260200160002060090160019054906101000a900460ff16151514610b3757600080fd5b6000811415610b73576001600460008481526020019081526020016000206004016000828254610b679190611805565b92505081905550610bb1565b6001811415610baf576001600460008481526020019081526020016000206006016000828254610ba39190611805565b92505081905550610bb0565b5b5b6001600460008481526020019081526020016000206008016000828254610bd89190611805565b9250508190555060016005600085815260200190815260200160002060030160026101000a81548160ff021916908315150217905550505050565b60008054906101000a900473ffffffffffffffffffffffffffffffffffffffff1673ffffffffffffffffffffffffffffffffffffffff163373ffffffffffffffffffffffffffffffffffffffff1614610c6b57600080fd5b60016004600083815260200190815260200160002060090160016101000a81548160ff02191690831515021790555060006004600083815260200190815260200160002060090160006101000a81548160ff02191690831515021790555050565b60008054906101000a900473ffffffffffffffffffffffffffffffffffffffff1673ffffffffffffffffffffffffffffffffffffffff163373ffffffffffffffffffffffffffffffffffffffff1614610d2457600080fd5b60016005600084815260200190815260200160002060030160016101000a81548160ff0219169083151502179055506001600460008381526020019081526020016000206007016000828254610d7a9190611805565b925050819055505050565b60008054906101000a900473ffffffffffffffffffffffffffffffffffffffff1673ffffffffffffffffffffffffffffffffffffffff163373ffffffffffffffffffffffffffffffffffffffff1614610ddd57600080fd5b600060405180610160016040528060015481526020018681526020018581526020018481526020016000815260200183815260200160008152602001600081526020016000815260200160001515815260200160001515815250905080600460006001548152602001908152602001600020600082015181600001556020820151816001019080519060200190610e7592919061109f565b506040820151816002019080519060200190610e9292919061109f565b506060820151816003019080519060200190610eaf92919061109f565b506080820151816004015560a0820151816005019080519060200190610ed692919061109f565b5060c0820151816006015560e0820151816007015561010082015181600801556101208201518160090160006101000a81548160ff0219169083151502179055506101408201518160090160016101000a81548160ff0219169083151502179055509050506001806000828254610f4d9190611805565b925050819055505050505050565b60006040518060c0016040528060025481526020013373ffffffffffffffffffffffffffffffffffffffff168152602001838152602001600115158152602001600015158152602001600015158152509050806005600060025481526020019081526020016000206000820151816000015560208201518160010160006101000a81548173ffffffffffffffffffffffffffffffffffffffff021916908373ffffffffffffffffffffffffffffffffffffffff1602179055506040820151816002015560608201518160030160006101000a81548160ff02191690831515021790555060808201518160030160016101000a81548160ff02191690831515021790555060a08201518160030160026101000a81548160ff0219169083151502179055509050506001600260008282546110949190611805565b925050819055505050565b8280546110ab906117a4565b90600052602060002090601f0160209004810192826110cd5760008555611114565b82601f106110e657805160ff1916838001178555611114565b82800160010185558215611114579182015b828111156111135782518255916020019190600101906110f8565b5b5090506111219190611125565b5090565b5b8082111561113e576000816000905550600101611126565b5090565b6000604051905090565b600080fd5b600080fd5b6000819050919050565b61116981611156565b811461117457600080fd5b50565b60008135905061118681611160565b92915050565b6000602082840312156111a2576111a161114c565b5b60006111b084828501611177565b91505092915050565b6111c281611156565b82525050565b600081519050919050565b600082825260208201905092915050565b60005b838110156112025780820151818401526020810190506111e7565b83811115611211576000848401525b50505050565b6000601f19601f8301169050919050565b6000611233826111c8565b61123d81856111d3565b935061124d8185602086016111e4565b61125681611217565b840191505092915050565b60008115159050919050565b61127681611261565b82525050565b600061016082019050611292600083018e6111b9565b81810360208301526112a4818d611228565b905081810360408301526112b8818c611228565b905081810360608301526112cc818b611228565b90506112db608083018a6111b9565b81810360a08301526112ed8189611228565b90506112fc60c08301886111b9565b61130960e08301876111b9565b6113176101008301866111b9565b61132561012083018561126d565b61133361014083018461126d565b9c9b505050505050505050505050565b600073ffffffffffffffffffffffffffffffffffffffff82169050919050565b600061136e82611343565b9050919050565b61137e81611363565b811461138957600080fd5b50565b60008135905061139b81611375565b92915050565b6000602082840312156113b7576113b661114c565b5b60006113c58482850161138c565b91505092915050565b6113d781611363565b82525050565b600060c0820190506113f260008301896111b9565b6113ff60208301886113ce565b81810360408301526114118187611228565b905081810360608301526114258186611228565b905081810360808301526114398185611228565b905081810360a083015261144d8184611228565b9050979650505050505050565b600060208201905061146f60008301846113ce565b92915050565b600060c08201905061148a60008301896111b9565b61149760208301886113ce565b6114a460408301876111b9565b6114b1606083018661126d565b6114be608083018561126d565b6114cb60a083018461126d565b979650505050505050565b600080fd5b600080fd5b7f4e487b7100000000000000000000000000000000000000000000000000000000600052604160045260246000fd5b61151882611217565b810181811067ffffffffffffffff82111715611537576115366114e0565b5b80604052505050565b600061154a611142565b9050611556828261150f565b919050565b600067ffffffffffffffff821115611576576115756114e0565b5b61157f82611217565b9050602081019050919050565b82818337600083830152505050565b60006115ae6115a98461155b565b611540565b9050828152602081018484840111156115ca576115c96114db565b5b6115d584828561158c565b509392505050565b600082601f8301126115f2576115f16114d6565b5b813561160284826020860161159b565b91505092915050565b600080600080608085870312156116255761162461114c565b5b600085013567ffffffffffffffff81111561164357611642611151565b5b61164f878288016115dd565b945050602085013567ffffffffffffffff8111156116705761166f611151565b5b61167c878288016115dd565b935050604085013567ffffffffffffffff81111561169d5761169c611151565b5b6116a9878288016115dd565b925050606085013567ffffffffffffffff8111156116ca576116c9611151565b5b6116d6878288016115dd565b91505092959194509250565b6000806000606084860312156116fb576116fa61114c565b5b600061170986828701611177565b935050602061171a86828701611177565b925050604061172b86828701611177565b9150509250925092565b6000806040838503121561174c5761174b61114c565b5b600061175a85828601611177565b925050602061176b85828601611177565b9150509250929050565b7f4e487b7100000000000000000000000000000000000000000000000000000000600052602260045260246000fd5b600060028204905060018216806117bc57607f821691505b602082108114156117d0576117cf611775565b5b50919050565b7f4e487b7100000000000000000000000000000000000000000000000000000000600052601160045260246000fd5b600061181082611156565b915061181b83611156565b9250827fffffffffffffffffffffffffffffffffffffffffffffffffffffffffffffffff038211156118505761184f6117d6565b5b82820190509291505056fea2646970667358221220806e626d9088f47c1961e0ee02938d5acf7c9166f576fdf74362d60cebd4aa4064736f6c634300080b0033",
  "immutableReferences": {},
  "source": "pragma solidity >=0.4.21 <0.9.0;\r\n\r\ncontract ElectionCon {\r\n    address public superAdmin;\r\n    uint256 electionCount;\r\n    uint256 voterCount;\r\n    uint256 accountsCount;\r\n\r\n    constructor() public {\r\n        superAdmin = msg.sender;\r\n        electionCount = 0;\r\n        voterCount = 0;\r\n        accountsCount = 0;\r\n    }\r\n\r\n    function getAdmin() public view returns (address) {\r\n        return superAdmin;\r\n    }\r\n\r\n    modifier onlyAdmin() {\r\n        require(msg.sender == superAdmin);\r\n        _;\r\n    }\r\n\r\n    //EMITS\r\n    /*todo*/\r\n\r\n\r\n    //STRUCTS\r\n    struct Election {\r\n        uint256 electionId;\r\n        string electionTitle;\r\n        string orgTitle;\r\n        string electionCanOne;\r\n        uint256 electionCanOneCount;\r\n        string electionCanTwo;\r\n        uint256 electionCanTwoCount;\r\n        uint256 voterCount;\r\n        uint256 votedCount;\r\n        bool start;\r\n        bool end;\r\n    }\r\n    mapping(uint256 => Election) public electionDetails;\r\n\r\n    struct Voter {\r\n        uint256 voterId;\r\n        address voterAddress;\r\n        uint256 registeredElection;\r\n        bool isRegistered;\r\n        bool isVerified;\r\n        bool hasVoted;\r\n    }\r\n    mapping(uint256 => Voter) public voterDetails;\r\n\r\n    struct Accounts {\r\n        uint256 accountId;\r\n        address accountAddress;\r\n        string accountName;\r\n        string accountPhone;\r\n        string accountCountry;\r\n        string accountEmail;\r\n    }\r\n    mapping(address => Accounts) public accountsDetails;\r\n\r\n\r\n    //FUNCTIONS FOR ADD\r\n    function addElection(\r\n        string memory _electionTitle,\r\n        string memory _orgTitle,\r\n        string memory _electionCanOne,\r\n        string memory _electionCanTwo\r\n    ) public onlyAdmin {\r\n        Election memory newElection =\r\n            Election({\r\n                electionId: electionCount,\r\n                electionTitle: _electionTitle,\r\n                orgTitle: _orgTitle,\r\n                electionCanOne: _electionCanOne,\r\n                electionCanOneCount: 0,\r\n                electionCanTwo: _electionCanTwo,\r\n                electionCanTwoCount: 0,\r\n                voterCount: 0,\r\n                votedCount: 0,\r\n                start: false,\r\n                end: false\r\n            });\r\n        electionDetails[electionCount] = newElection;\r\n        electionCount += 1;\r\n    }\r\n\r\n    function addVoter(\r\n        uint256 _registeredElection\r\n    ) public {\r\n        /*require that voter address has name*/\r\n        Voter memory newVoter =\r\n            Voter({\r\n                voterId: voterCount,\r\n                voterAddress: msg.sender,\r\n                registeredElection: _registeredElection,\r\n                isRegistered: true,\r\n                isVerified: false,\r\n                hasVoted: false\r\n            });\r\n        voterDetails[voterCount] = newVoter;\r\n        voterCount += 1;\r\n    }\r\n\r\n    function addAccounts(\r\n        string memory _accountName,\r\n        string memory _accountPhone,\r\n        string memory _accountCountry,\r\n        string memory _accountEmail\r\n    ) public {\r\n        Accounts memory newAccount =\r\n            Accounts({\r\n                accountId: accountsCount,\r\n                accountAddress: msg.sender,\r\n                accountName: _accountName,\r\n                accountPhone: _accountPhone,\r\n                accountCountry: _accountCountry,\r\n                accountEmail: _accountEmail\r\n            });\r\n        accountsDetails[msg.sender] = newAccount;\r\n        accountsCount += 1;\r\n    }\r\n\r\n\r\n    //FUNCTION FOR VOTES\r\n    function verifyVoter(\r\n        uint256 _voterId,\r\n        uint256 _electionId\r\n    ) public onlyAdmin {\r\n        /*require that both exists*/\r\n        voterDetails[_voterId].isVerified = true;\r\n        electionDetails[_electionId].voterCount += 1;\r\n    }\r\n\r\n    function voteElection(uint256 _voterId, uint256 _electionId, uint256 _candidate) public {\r\n        require(voterDetails[_voterId].hasVoted == false);\r\n        require(voterDetails[_voterId].isVerified == true);\r\n        require(electionDetails[_electionId].start == true);\r\n        require(electionDetails[_electionId].end == false);\r\n        if (_candidate == 0) {\r\n            electionDetails[_electionId].electionCanOneCount += 1;\r\n        } else if (_candidate == 1) {\r\n            electionDetails[_electionId].electionCanTwoCount += 1;\r\n        } else {}\r\n        electionDetails[_electionId].votedCount += 1;\r\n        voterDetails[_voterId].hasVoted = true;\r\n    }\r\n\r\n    \r\n    //FUNCTION FOR ELECTIONS\r\n    function startElection(uint256 _electionId) public onlyAdmin {\r\n        electionDetails[_electionId].start = true;\r\n        electionDetails[_electionId].end = false;\r\n    }\r\n\r\n    function endElection(uint256 _electionId) public onlyAdmin {\r\n        electionDetails[_electionId].end = true;\r\n        electionDetails[_electionId].start = false;\r\n    }\r\n}\r\n",
  "sourcePath": "C:\\Users\\Ben\\Desktop\\Y3S2\\FYP\\APVote\\apvote-smartContract\\contracts\\ElectionCon.sol",
  "compiler": {
    "name": "solc",
    "version": "0.8.11+commit.d7f03943.Emscripten.clang"
  },
  "schemaVersion": "3.4.4",
  "updatedAt": "2022-03-15T16:57:40.527Z",
  "networkType": "ethereum",
  "devdoc": {
    "kind": "dev",
    "methods": {},
    "version": 1
  },
  "userdoc": {
    "kind": "user",
    "methods": {},
    "version": 1
  }
}