{
  "contractName": "ElectionCon",
  "abi": [
    {
      "inputs": [],
      "stateMutability": "nonpayable",
      "type": "constructor"
    },
    {
      "inputs": [],
      "name": "accountsCount",
      "outputs": [
        {
          "internalType": "uint256",
          "name": "",
          "type": "uint256"
        }
      ],
      "stateMutability": "view",
      "type": "function",
      "constant": true
    },
    {
      "inputs": [
        {
          "internalType": "address",
          "name": "",
          "type": "address"
        }
      ],
      "name": "accountsDetails",
      "outputs": [
        {
          "internalType": "uint256",
          "name": "accountId",
          "type": "uint256"
        },
        {
          "internalType": "address",
          "name": "accountAddress",
          "type": "address"
        },
        {
          "internalType": "string",
          "name": "accountName",
          "type": "string"
        },
        {
          "internalType": "string",
          "name": "accountPhone",
          "type": "string"
        },
        {
          "internalType": "string",
          "name": "accountCountry",
          "type": "string"
        },
        {
          "internalType": "string",
          "name": "accountEmail",
          "type": "string"
        }
      ],
      "stateMutability": "view",
      "type": "function",
      "constant": true
    },
    {
      "inputs": [
        {
          "internalType": "uint256",
          "name": "",
          "type": "uint256"
        }
      ],
      "name": "adminDetails",
      "outputs": [
        {
          "internalType": "uint256",
          "name": "adminId",
          "type": "uint256"
        },
        {
          "internalType": "address",
          "name": "adminAddress",
          "type": "address"
        }
      ],
      "stateMutability": "view",
      "type": "function",
      "constant": true
    },
    {
      "inputs": [
        {
          "internalType": "uint256",
          "name": "",
          "type": "uint256"
        }
      ],
      "name": "admins",
      "outputs": [
        {
          "internalType": "address",
          "name": "",
          "type": "address"
        }
      ],
      "stateMutability": "view",
      "type": "function",
      "constant": true
    },
    {
      "inputs": [],
      "name": "electionCount",
      "outputs": [
        {
          "internalType": "uint256",
          "name": "",
          "type": "uint256"
        }
      ],
      "stateMutability": "view",
      "type": "function",
      "constant": true
    },
    {
      "inputs": [
        {
          "internalType": "uint256",
          "name": "",
          "type": "uint256"
        }
      ],
      "name": "electionDetails",
      "outputs": [
        {
          "internalType": "uint256",
          "name": "electionId",
          "type": "uint256"
        },
        {
          "internalType": "string",
          "name": "electionTitle",
          "type": "string"
        },
        {
          "internalType": "string",
          "name": "electionCanOne",
          "type": "string"
        },
        {
          "internalType": "string",
          "name": "electionCanOneHash",
          "type": "string"
        },
        {
          "internalType": "uint256",
          "name": "electionCanOneCount",
          "type": "uint256"
        },
        {
          "internalType": "string",
          "name": "electionCanTwo",
          "type": "string"
        },
        {
          "internalType": "string",
          "name": "electionCanTwoHash",
          "type": "string"
        },
        {
          "internalType": "uint256",
          "name": "electionCanTwoCount",
          "type": "uint256"
        },
        {
          "internalType": "uint256",
          "name": "voterCount",
          "type": "uint256"
        },
        {
          "internalType": "uint256",
          "name": "votedCount",
          "type": "uint256"
        },
        {
          "internalType": "bool",
          "name": "start",
          "type": "bool"
        },
        {
          "internalType": "bool",
          "name": "end",
          "type": "bool"
        }
      ],
      "stateMutability": "view",
      "type": "function",
      "constant": true
    },
    {
      "inputs": [],
      "name": "superAdmin",
      "outputs": [
        {
          "internalType": "address",
          "name": "",
          "type": "address"
        }
      ],
      "stateMutability": "view",
      "type": "function",
      "constant": true
    },
    {
      "inputs": [],
      "name": "voterCount",
      "outputs": [
        {
          "internalType": "uint256",
          "name": "",
          "type": "uint256"
        }
      ],
      "stateMutability": "view",
      "type": "function",
      "constant": true
    },
    {
      "inputs": [
        {
          "internalType": "uint256",
          "name": "",
          "type": "uint256"
        }
      ],
      "name": "voterDetails",
      "outputs": [
        {
          "internalType": "uint256",
          "name": "voterId",
          "type": "uint256"
        },
        {
          "internalType": "address",
          "name": "voterAddress",
          "type": "address"
        },
        {
          "internalType": "uint256",
          "name": "registeredElection",
          "type": "uint256"
        },
        {
          "internalType": "bool",
          "name": "isRegistered",
          "type": "bool"
        },
        {
          "internalType": "bool",
          "name": "isVerified",
          "type": "bool"
        },
        {
          "internalType": "bool",
          "name": "hasVoted",
          "type": "bool"
        },
        {
          "internalType": "uint256",
          "name": "timeVoted",
          "type": "uint256"
        }
      ],
      "stateMutability": "view",
      "type": "function",
      "constant": true
    },
    {
      "inputs": [],
      "name": "getAdmin",
      "outputs": [
        {
          "internalType": "address",
          "name": "",
          "type": "address"
        }
      ],
      "stateMutability": "view",
      "type": "function",
      "constant": true
    },
    {
      "inputs": [
        {
          "internalType": "string",
          "name": "_electionTitle",
          "type": "string"
        },
        {
          "internalType": "string",
          "name": "_electionCanOne",
          "type": "string"
        },
        {
          "internalType": "string",
          "name": "_electionCanTwo",
          "type": "string"
        },
        {
          "internalType": "string",
          "name": "_electionCanOneHash",
          "type": "string"
        },
        {
          "internalType": "string",
          "name": "_electionCanTwoHash",
          "type": "string"
        }
      ],
      "name": "addElection",
      "outputs": [],
      "stateMutability": "nonpayable",
      "type": "function"
    },
    {
      "inputs": [
        {
          "internalType": "uint256",
          "name": "_registeredElection",
          "type": "uint256"
        }
      ],
      "name": "addVoter",
      "outputs": [],
      "stateMutability": "nonpayable",
      "type": "function"
    },
    {
      "inputs": [
        {
          "internalType": "string",
          "name": "_accountName",
          "type": "string"
        },
        {
          "internalType": "string",
          "name": "_accountPhone",
          "type": "string"
        },
        {
          "internalType": "string",
          "name": "_accountCountry",
          "type": "string"
        },
        {
          "internalType": "string",
          "name": "_accountEmail",
          "type": "string"
        }
      ],
      "name": "addAccounts",
      "outputs": [],
      "stateMutability": "nonpayable",
      "type": "function"
    },
    {
      "inputs": [
        {
          "internalType": "uint256",
          "name": "_voterId",
          "type": "uint256"
        },
        {
          "internalType": "uint256",
          "name": "_electionId",
          "type": "uint256"
        }
      ],
      "name": "verifyVoter",
      "outputs": [],
      "stateMutability": "nonpayable",
      "type": "function"
    },
    {
      "inputs": [
        {
          "internalType": "uint256",
          "name": "_voterId",
          "type": "uint256"
        },
        {
          "internalType": "uint256",
          "name": "_electionId",
          "type": "uint256"
        },
        {
          "internalType": "uint256",
          "name": "_candidate",
          "type": "uint256"
        }
      ],
      "name": "voteElection",
      "outputs": [],
      "stateMutability": "nonpayable",
      "type": "function"
    },
    {
      "inputs": [
        {
          "internalType": "uint256",
          "name": "_electionId",
          "type": "uint256"
        }
      ],
      "name": "startElection",
      "outputs": [],
      "stateMutability": "nonpayable",
      "type": "function"
    },
    {
      "inputs": [
        {
          "internalType": "uint256",
          "name": "_electionId",
          "type": "uint256"
        }
      ],
      "name": "endElection",
      "outputs": [],
      "stateMutability": "nonpayable",
      "type": "function"
    },
    {
      "inputs": [
        {
          "internalType": "uint256",
          "name": "_electionId",
          "type": "uint256"
        }
      ],
      "name": "getElectionTitle",
      "outputs": [
        {
          "internalType": "string",
          "name": "",
          "type": "string"
        }
      ],
      "stateMutability": "view",
      "type": "function",
      "constant": true
    },
    {
      "inputs": [
        {
          "internalType": "address",
          "name": "_voterAddress",
          "type": "address"
        }
      ],
      "name": "getVoterName",
      "outputs": [
        {
          "internalType": "string",
          "name": "",
          "type": "string"
        }
      ],
      "stateMutability": "view",
      "type": "function",
      "constant": true
    },
    {
      "inputs": [
        {
          "internalType": "address",
          "name": "_adminAddress",
          "type": "address"
        }
      ],
      "name": "addAdmin",
      "outputs": [],
      "stateMutability": "nonpayable",
      "type": "function"
    },
    {
      "inputs": [],
      "name": "getAdminLength",
      "outputs": [
        {
          "internalType": "uint256",
          "name": "",
          "type": "uint256"
        }
      ],
      "stateMutability": "view",
      "type": "function",
      "constant": true
    },
    {
      "inputs": [
        {
          "internalType": "uint256",
          "name": "_adminIndex",
          "type": "uint256"
        }
      ],
      "name": "removeAdmin",
      "outputs": [],
      "stateMutability": "nonpayable",
      "type": "function"
    }
  ],
  "bytecode": "0x608060405234801561001057600080fd5b50336000806101000a81548173ffffffffffffffffffffffffffffffffffffffff021916908373ffffffffffffffffffffffffffffffffffffffff160217905550600060018190555060006002819055506000600381905550612360806100786000396000f3fe608060405234801561001057600080fd5b50600436106101415760003560e01c806370480275116100b85780639c98bcbb1161007c5780639c98bcbb1461039f5780639cc1d5a9146103bb578063ad7bbc29146103d7578063c22b6b9d146103f3578063d67469ce14610423578063d8f7a0bb1461044157610141565b806370480275146102fc578063807ba7e01461031857806382ae74081461034957806397a347b614610365578063997d28301461038157610141565b8063322f029d1161010a578063322f029d1461022257806342169e48146102585780634d94fc6a146102765780636d32dc4b146102a65780636e9960c3146102c25780636efaad1e146102e057610141565b8062535947146101465780630119e0381461018157806314bfd6d0146101b657806327538b30146101e657806329575f6a14610204575b600080fd5b610160600480360381019061015b9190611a52565b61045d565b6040516101789c9b9a99989796959493929190611b42565b60405180910390f35b61019b60048036038101906101969190611c7d565b61077f565b6040516101ad96959493929190611cb9565b60405180910390f35b6101d060048036038101906101cb9190611a52565b6109fb565b6040516101dd9190611d36565b60405180910390f35b6101ee610a3a565b6040516101fb9190611d51565b60405180910390f35b61020c610a40565b6040516102199190611d36565b60405180910390f35b61023c60048036038101906102379190611a52565b610a64565b60405161024f9796959493929190611d6c565b60405180910390f35b610260610aed565b60405161026d9190611d51565b60405180910390f35b610290600480360381019061028b9190611a52565b610af3565b60405161029d9190611ddb565b60405180910390f35b6102c060048036038101906102bb9190611a52565b610b9b565b005b6102ca610d04565b6040516102d79190611d36565b60405180910390f35b6102fa60048036038101906102f59190611f32565b610d2d565b005b61031660048036038101906103119190611c7d565b610e9f565b005b610332600480360381019061032d9190611a52565b610f5d565b604051610340929190612009565b60405180910390f35b610363600480360381019061035e9190612032565b610fa1565b005b61037f600480360381019061037a9190612085565b611168565b005b610389611413565b6040516103969190611d51565b60405180910390f35b6103b960048036038101906103b49190611a52565b611419565b005b6103d560048036038101906103d0919061218c565b611582565b005b6103f160048036038101906103ec9190611a52565b6116eb565b005b61040d60048036038101906104089190611c7d565b61172f565b60405161041a9190611ddb565b60405180910390f35b61042b611803565b6040516104389190611d51565b60405180910390f35b61045b60048036038101906104569190611a52565b611810565b005b6004602052806000526040600020600091509050806000015490806001018054610486906121fb565b80601f01602080910402602001604051908101604052809291908181526020018280546104b2906121fb565b80156104ff5780601f106104d4576101008083540402835291602001916104ff565b820191906000526020600020905b8154815290600101906020018083116104e257829003601f168201915b505050505090806002018054610514906121fb565b80601f0160208091040260200160405190810160405280929190818152602001828054610540906121fb565b801561058d5780601f106105625761010080835404028352916020019161058d565b820191906000526020600020905b81548152906001019060200180831161057057829003601f168201915b5050505050908060030180546105a2906121fb565b80601f01602080910402602001604051908101604052809291908181526020018280546105ce906121fb565b801561061b5780601f106105f05761010080835404028352916020019161061b565b820191906000526020600020905b8154815290600101906020018083116105fe57829003601f168201915b505050505090806004015490806005018054610636906121fb565b80601f0160208091040260200160405190810160405280929190818152602001828054610662906121fb565b80156106af5780601f10610684576101008083540402835291602001916106af565b820191906000526020600020905b81548152906001019060200180831161069257829003601f168201915b5050505050908060060180546106c4906121fb565b80601f01602080910402602001604051908101604052809291908181526020018280546106f0906121fb565b801561073d5780601f106107125761010080835404028352916020019161073d565b820191906000526020600020905b81548152906001019060200180831161072057829003601f168201915b50505050509080600701549080600801549080600901549080600a0160009054906101000a900460ff169080600a0160019054906101000a900460ff1690508c565b60066020528060005260406000206000915090508060000154908060010160009054906101000a900473ffffffffffffffffffffffffffffffffffffffff16908060020180546107ce906121fb565b80601f01602080910402602001604051908101604052809291908181526020018280546107fa906121fb565b80156108475780601f1061081c57610100808354040283529160200191610847565b820191906000526020600020905b81548152906001019060200180831161082a57829003601f168201915b50505050509080600301805461085c906121fb565b80601f0160208091040260200160405190810160405280929190818152602001828054610888906121fb565b80156108d55780601f106108aa576101008083540402835291602001916108d5565b820191906000526020600020905b8154815290600101906020018083116108b857829003601f168201915b5050505050908060040180546108ea906121fb565b80601f0160208091040260200160405190810160405280929190818152602001828054610916906121fb565b80156109635780601f1061093857610100808354040283529160200191610963565b820191906000526020600020905b81548152906001019060200180831161094657829003601f168201915b505050505090806005018054610978906121fb565b80601f01602080910402602001604051908101604052809291908181526020018280546109a4906121fb565b80156109f15780601f106109c6576101008083540402835291602001916109f1565b820191906000526020600020905b8154815290600101906020018083116109d457829003601f168201915b5050505050905086565b60088181548110610a0b57600080fd5b906000526020600020016000915054906101000a900473ffffffffffffffffffffffffffffffffffffffff1681565b60035481565b60008054906101000a900473ffffffffffffffffffffffffffffffffffffffff1681565b60056020528060005260406000206000915090508060000154908060010160009054906101000a900473ffffffffffffffffffffffffffffffffffffffff16908060020154908060030160009054906101000a900460ff16908060030160019054906101000a900460ff16908060030160029054906101000a900460ff16908060040154905087565b60025481565b6060600460008381526020019081526020016000206001018054610b16906121fb565b80601f0160208091040260200160405190810160405280929190818152602001828054610b42906121fb565b8015610b8f5780601f10610b6457610100808354040283529160200191610b8f565b820191906000526020600020905b815481529060010190602001808311610b7257829003601f168201915b50505050509050919050565b60008054906101000a900473ffffffffffffffffffffffffffffffffffffffff1673ffffffffffffffffffffffffffffffffffffffff163373ffffffffffffffffffffffffffffffffffffffff1614610bf357600080fd5b336000805b600880549050811015610c8f5760088181548110610c1957610c1861222d565b5b9060005260206000200160009054906101000a900473ffffffffffffffffffffffffffffffffffffffff1673ffffffffffffffffffffffffffffffffffffffff168373ffffffffffffffffffffffffffffffffffffffff161415610c7c57600191505b8080610c879061228b565b915050610bf8565b506001151581151514610ca157600080fd5b600160046000858152602001908152602001600020600a0160006101000a81548160ff021916908315150217905550600060046000858152602001908152602001600020600a0160016101000a81548160ff021916908315150217905550505050565b60008060009054906101000a900473ffffffffffffffffffffffffffffffffffffffff16905090565b60006040518060c0016040528060035481526020013373ffffffffffffffffffffffffffffffffffffffff16815260200186815260200185815260200184815260200183815250905080600660003373ffffffffffffffffffffffffffffffffffffffff1673ffffffffffffffffffffffffffffffffffffffff1681526020019081526020016000206000820151816000015560208201518160010160006101000a81548173ffffffffffffffffffffffffffffffffffffffff021916908373ffffffffffffffffffffffffffffffffffffffff1602179055506040820151816002019080519060200190610e23929190611965565b506060820151816003019080519060200190610e40929190611965565b506080820151816004019080519060200190610e5d929190611965565b5060a0820151816005019080519060200190610e7a929190611965565b50905050600160036000828254610e9191906122d4565b925050819055505050505050565b60008054906101000a900473ffffffffffffffffffffffffffffffffffffffff1673ffffffffffffffffffffffffffffffffffffffff163373ffffffffffffffffffffffffffffffffffffffff1614610ef757600080fd5b6008819080600181540180825580915050600190039060005260206000200160009091909190916101000a81548173ffffffffffffffffffffffffffffffffffffffff021916908373ffffffffffffffffffffffffffffffffffffffff16021790555050565b60076020528060005260406000206000915090508060000154908060010160009054906101000a900473ffffffffffffffffffffffffffffffffffffffff16905082565b600015156005600085815260200190815260200160002060030160029054906101000a900460ff16151514610fd557600080fd5b600115156005600085815260200190815260200160002060030160019054906101000a900460ff1615151461100957600080fd5b6001151560046000848152602001908152602001600020600a0160009054906101000a900460ff1615151461103d57600080fd5b6000151560046000848152602001908152602001600020600a0160019054906101000a900460ff1615151461107157600080fd5b60008114156110ad5760016004600084815260200190815260200160002060040160008282546110a191906122d4565b925050819055506110eb565b60018114156110e95760016004600084815260200190815260200160002060070160008282546110dd91906122d4565b925050819055506110ea565b5b5b600160046000848152602001908152602001600020600901600082825461111291906122d4565b9250508190555060016005600085815260200190815260200160002060030160026101000a81548160ff021916908315150217905550426005600085815260200190815260200160002060040181905550505050565b60008054906101000a900473ffffffffffffffffffffffffffffffffffffffff1673ffffffffffffffffffffffffffffffffffffffff163373ffffffffffffffffffffffffffffffffffffffff16146111c057600080fd5b336000805b60088054905081101561125c57600881815481106111e6576111e561222d565b5b9060005260206000200160009054906101000a900473ffffffffffffffffffffffffffffffffffffffff1673ffffffffffffffffffffffffffffffffffffffff168373ffffffffffffffffffffffffffffffffffffffff16141561124957600191505b80806112549061228b565b9150506111c5565b50600115158115151461126e57600080fd5b60006040518061018001604052806001548152602001898152602001888152602001868152602001600081526020018781526020018581526020016000815260200160008152602001600081526020016000151581526020016000151581525090508060046000600154815260200190815260200160002060008201518160000155602082015181600101908051906020019061130c929190611965565b506040820151816002019080519060200190611329929190611965565b506060820151816003019080519060200190611346929190611965565b506080820151816004015560a082015181600501908051906020019061136d929190611965565b5060c082015181600601908051906020019061138a929190611965565b5060e082015181600701556101008201518160080155610120820151816009015561014082015181600a0160006101000a81548160ff02191690831515021790555061016082015181600a0160016101000a81548160ff021916908315150217905550905050600180600082825461140291906122d4565b925050819055505050505050505050565b60015481565b60008054906101000a900473ffffffffffffffffffffffffffffffffffffffff1673ffffffffffffffffffffffffffffffffffffffff163373ffffffffffffffffffffffffffffffffffffffff161461147157600080fd5b336000805b60088054905081101561150d57600881815481106114975761149661222d565b5b9060005260206000200160009054906101000a900473ffffffffffffffffffffffffffffffffffffffff1673ffffffffffffffffffffffffffffffffffffffff168373ffffffffffffffffffffffffffffffffffffffff1614156114fa57600191505b80806115059061228b565b915050611476565b50600115158115151461151f57600080fd5b600160046000858152602001908152602001600020600a0160016101000a81548160ff021916908315150217905550600060046000858152602001908152602001600020600a0160006101000a81548160ff021916908315150217905550505050565b60008054906101000a900473ffffffffffffffffffffffffffffffffffffffff1673ffffffffffffffffffffffffffffffffffffffff163373ffffffffffffffffffffffffffffffffffffffff16146115da57600080fd5b336000805b6008805490508110156116765760088181548110611600576115ff61222d565b5b9060005260206000200160009054906101000a900473ffffffffffffffffffffffffffffffffffffffff1673ffffffffffffffffffffffffffffffffffffffff168373ffffffffffffffffffffffffffffffffffffffff16141561166357600191505b808061166e9061228b565b9150506115df565b50600115158115151461168857600080fd5b60016005600086815260200190815260200160002060030160016101000a81548160ff02191690831515021790555060016004600085815260200190815260200160002060080160008282546116de91906122d4565b9250508190555050505050565b600881815481106116ff576116fe61222d565b5b9060005260206000200160006101000a81549073ffffffffffffffffffffffffffffffffffffffff021916905550565b6060600660008373ffffffffffffffffffffffffffffffffffffffff1673ffffffffffffffffffffffffffffffffffffffff168152602001908152602001600020600201805461177e906121fb565b80601f01602080910402602001604051908101604052809291908181526020018280546117aa906121fb565b80156117f75780601f106117cc576101008083540402835291602001916117f7565b820191906000526020600020905b8154815290600101906020018083116117da57829003601f168201915b50505050509050919050565b6000600880549050905090565b60006040518060e0016040528060025481526020013373ffffffffffffffffffffffffffffffffffffffff16815260200183815260200160011515815260200160001515815260200160001515815260200160008152509050806005600060025481526020019081526020016000206000820151816000015560208201518160010160006101000a81548173ffffffffffffffffffffffffffffffffffffffff021916908373ffffffffffffffffffffffffffffffffffffffff1602179055506040820151816002015560608201518160030160006101000a81548160ff02191690831515021790555060808201518160030160016101000a81548160ff02191690831515021790555060a08201518160030160026101000a81548160ff02191690831515021790555060c0820151816004015590505060016002600082825461195a91906122d4565b925050819055505050565b828054611971906121fb565b90600052602060002090601f01602090048101928261199357600085556119da565b82601f106119ac57805160ff19168380011785556119da565b828001600101855582156119da579182015b828111156119d95782518255916020019190600101906119be565b5b5090506119e791906119eb565b5090565b5b80821115611a045760008160009055506001016119ec565b5090565b6000604051905090565b600080fd5b600080fd5b6000819050919050565b611a2f81611a1c565b8114611a3a57600080fd5b50565b600081359050611a4c81611a26565b92915050565b600060208284031215611a6857611a67611a12565b5b6000611a7684828501611a3d565b91505092915050565b611a8881611a1c565b82525050565b600081519050919050565b600082825260208201905092915050565b60005b83811015611ac8578082015181840152602081019050611aad565b83811115611ad7576000848401525b50505050565b6000601f19601f8301169050919050565b6000611af982611a8e565b611b038185611a99565b9350611b13818560208601611aaa565b611b1c81611add565b840191505092915050565b60008115159050919050565b611b3c81611b27565b82525050565b600061018082019050611b58600083018f611a7f565b8181036020830152611b6a818e611aee565b90508181036040830152611b7e818d611aee565b90508181036060830152611b92818c611aee565b9050611ba1608083018b611a7f565b81810360a0830152611bb3818a611aee565b905081810360c0830152611bc78189611aee565b9050611bd660e0830188611a7f565b611be4610100830187611a7f565b611bf2610120830186611a7f565b611c00610140830185611b33565b611c0e610160830184611b33565b9d9c50505050505050505050505050565b600073ffffffffffffffffffffffffffffffffffffffff82169050919050565b6000611c4a82611c1f565b9050919050565b611c5a81611c3f565b8114611c6557600080fd5b50565b600081359050611c7781611c51565b92915050565b600060208284031215611c9357611c92611a12565b5b6000611ca184828501611c68565b91505092915050565b611cb381611c3f565b82525050565b600060c082019050611cce6000830189611a7f565b611cdb6020830188611caa565b8181036040830152611ced8187611aee565b90508181036060830152611d018186611aee565b90508181036080830152611d158185611aee565b905081810360a0830152611d298184611aee565b9050979650505050505050565b6000602082019050611d4b6000830184611caa565b92915050565b6000602082019050611d666000830184611a7f565b92915050565b600060e082019050611d81600083018a611a7f565b611d8e6020830189611caa565b611d9b6040830188611a7f565b611da86060830187611b33565b611db56080830186611b33565b611dc260a0830185611b33565b611dcf60c0830184611a7f565b98975050505050505050565b60006020820190508181036000830152611df58184611aee565b905092915050565b600080fd5b600080fd5b7f4e487b7100000000000000000000000000000000000000000000000000000000600052604160045260246000fd5b611e3f82611add565b810181811067ffffffffffffffff82111715611e5e57611e5d611e07565b5b80604052505050565b6000611e71611a08565b9050611e7d8282611e36565b919050565b600067ffffffffffffffff821115611e9d57611e9c611e07565b5b611ea682611add565b9050602081019050919050565b82818337600083830152505050565b6000611ed5611ed084611e82565b611e67565b905082815260208101848484011115611ef157611ef0611e02565b5b611efc848285611eb3565b509392505050565b600082601f830112611f1957611f18611dfd565b5b8135611f29848260208601611ec2565b91505092915050565b60008060008060808587031215611f4c57611f4b611a12565b5b600085013567ffffffffffffffff811115611f6a57611f69611a17565b5b611f7687828801611f04565b945050602085013567ffffffffffffffff811115611f9757611f96611a17565b5b611fa387828801611f04565b935050604085013567ffffffffffffffff811115611fc457611fc3611a17565b5b611fd087828801611f04565b925050606085013567ffffffffffffffff811115611ff157611ff0611a17565b5b611ffd87828801611f04565b91505092959194509250565b600060408201905061201e6000830185611a7f565b61202b6020830184611caa565b9392505050565b60008060006060848603121561204b5761204a611a12565b5b600061205986828701611a3d565b935050602061206a86828701611a3d565b925050604061207b86828701611a3d565b9150509250925092565b600080600080600060a086880312156120a1576120a0611a12565b5b600086013567ffffffffffffffff8111156120bf576120be611a17565b5b6120cb88828901611f04565b955050602086013567ffffffffffffffff8111156120ec576120eb611a17565b5b6120f888828901611f04565b945050604086013567ffffffffffffffff81111561211957612118611a17565b5b61212588828901611f04565b935050606086013567ffffffffffffffff81111561214657612145611a17565b5b61215288828901611f04565b925050608086013567ffffffffffffffff81111561217357612172611a17565b5b61217f88828901611f04565b9150509295509295909350565b600080604083850312156121a3576121a2611a12565b5b60006121b185828601611a3d565b92505060206121c285828601611a3d565b9150509250929050565b7f4e487b7100000000000000000000000000000000000000000000000000000000600052602260045260246000fd5b6000600282049050600182168061221357607f821691505b60208210811415612227576122266121cc565b5b50919050565b7f4e487b7100000000000000000000000000000000000000000000000000000000600052603260045260246000fd5b7f4e487b7100000000000000000000000000000000000000000000000000000000600052601160045260246000fd5b600061229682611a1c565b91507fffffffffffffffffffffffffffffffffffffffffffffffffffffffffffffffff8214156122c9576122c861225c565b5b600182019050919050565b60006122df82611a1c565b91506122ea83611a1c565b9250827fffffffffffffffffffffffffffffffffffffffffffffffffffffffffffffffff0382111561231f5761231e61225c565b5b82820190509291505056fea264697066735822122074fd00dc82cf46529c58e0e9410b618af458e179bf79aeb990cdc3113f56ab0964736f6c634300080b0033",
  "immutableReferences": {},
  "source": "pragma solidity >=0.4.21 <0.9.0;\r\n\r\ncontract ElectionCon {\r\n    address public superAdmin;\r\n    uint256 public electionCount;\r\n    uint256 public voterCount;\r\n    uint256 public accountsCount;\r\n    \r\n\r\n    constructor() public {\r\n        superAdmin = msg.sender;\r\n        electionCount = 0;\r\n        voterCount = 0;\r\n        accountsCount = 0;\r\n    }\r\n\r\n    function getAdmin() public view returns (address) {\r\n        return superAdmin;\r\n    }\r\n\r\n    modifier onlyAdmin() {\r\n        require(msg.sender == superAdmin);\r\n        _;\r\n    }\r\n\r\n    //EMITS\r\n    /*todo*/\r\n\r\n\r\n    //STRUCTS\r\n    struct Election {\r\n        uint256 electionId;\r\n        string electionTitle;\r\n        string electionCanOne;\r\n        string electionCanOneHash;\r\n        uint256 electionCanOneCount;\r\n        string electionCanTwo;\r\n        string electionCanTwoHash;\r\n        uint256 electionCanTwoCount;\r\n        uint256 voterCount;\r\n        uint256 votedCount;\r\n        bool start;\r\n        bool end;\r\n    }\r\n    mapping(uint256 => Election) public electionDetails;\r\n\r\n    struct Voter {\r\n        uint256 voterId;\r\n        address voterAddress;\r\n        uint256 registeredElection;\r\n        bool isRegistered;\r\n        bool isVerified;\r\n        bool hasVoted;\r\n        uint timeVoted;\r\n    }\r\n    mapping(uint256 => Voter) public voterDetails;\r\n\r\n    struct Accounts {\r\n        uint256 accountId;\r\n        address accountAddress;\r\n        string accountName;\r\n        string accountPhone;\r\n        string accountCountry;\r\n        string accountEmail;\r\n    }\r\n    mapping(address => Accounts) public accountsDetails;\r\n\r\n    struct Admins {\r\n        uint256 adminId;\r\n        address adminAddress;\r\n    }\r\n    mapping(uint256 => Admins) public adminDetails;\r\n\r\n\r\n    //FUNCTIONS FOR ADD\r\n    function addElection(\r\n        string memory _electionTitle,\r\n        string memory _electionCanOne,\r\n        string memory _electionCanTwo,\r\n        string memory _electionCanOneHash,\r\n        string memory _electionCanTwoHash\r\n    ) public onlyAdmin normalAdmin(msg.sender) {\r\n        Election memory newElection =\r\n            Election({\r\n                electionId: electionCount,\r\n                electionTitle: _electionTitle,\r\n                electionCanOne: _electionCanOne,\r\n                electionCanOneHash: _electionCanOneHash,\r\n                electionCanOneCount: 0,\r\n                electionCanTwo: _electionCanTwo,\r\n                electionCanTwoHash: _electionCanTwoHash,\r\n                electionCanTwoCount: 0,\r\n                voterCount: 0,\r\n                votedCount: 0,\r\n                start: false,\r\n                end: false\r\n            });\r\n        electionDetails[electionCount] = newElection;\r\n        electionCount += 1;\r\n    }\r\n\r\n    function addVoter(\r\n        uint256 _registeredElection\r\n    ) public {\r\n        /*require that voter address has name*/\r\n        Voter memory newVoter =\r\n            Voter({\r\n                voterId: voterCount,\r\n                voterAddress: msg.sender,\r\n                registeredElection: _registeredElection,\r\n                isRegistered: true,\r\n                isVerified: false,\r\n                hasVoted: false,\r\n                timeVoted: 0\r\n            });\r\n        voterDetails[voterCount] = newVoter;\r\n        voterCount += 1;\r\n    }\r\n\r\n    function addAccounts(\r\n        string memory _accountName,\r\n        string memory _accountPhone,\r\n        string memory _accountCountry,\r\n        string memory _accountEmail\r\n    ) public {\r\n        Accounts memory newAccount =\r\n            Accounts({\r\n                accountId: accountsCount,\r\n                accountAddress: msg.sender,\r\n                accountName: _accountName,\r\n                accountPhone: _accountPhone,\r\n                accountCountry: _accountCountry,\r\n                accountEmail: _accountEmail\r\n            });\r\n        accountsDetails[msg.sender] = newAccount;\r\n        accountsCount += 1;\r\n    }\r\n\r\n\r\n    //FUNCTION FOR VOTES\r\n    function verifyVoter(\r\n        uint256 _voterId,\r\n        uint256 _electionId\r\n    ) public onlyAdmin normalAdmin(msg.sender) {\r\n        /*require that both exists*/\r\n        voterDetails[_voterId].isVerified = true;\r\n        electionDetails[_electionId].voterCount += 1;\r\n    }\r\n\r\n    function voteElection(uint256 _voterId, uint256 _electionId, uint256 _candidate) public {\r\n        require(voterDetails[_voterId].hasVoted == false);\r\n        require(voterDetails[_voterId].isVerified == true);\r\n        require(electionDetails[_electionId].start == true);\r\n        require(electionDetails[_electionId].end == false);\r\n        if (_candidate == 0) {\r\n            electionDetails[_electionId].electionCanOneCount += 1;\r\n        } else if (_candidate == 1) {\r\n            electionDetails[_electionId].electionCanTwoCount += 1;\r\n        } else {}\r\n        electionDetails[_electionId].votedCount += 1;\r\n        voterDetails[_voterId].hasVoted = true;\r\n        voterDetails[_voterId].timeVoted = block.timestamp;\r\n    }\r\n\r\n    \r\n    //FUNCTION FOR ELECTIONS\r\n    function startElection(uint256 _electionId) public onlyAdmin normalAdmin(msg.sender) {\r\n        electionDetails[_electionId].start = true;\r\n        electionDetails[_electionId].end = false;\r\n    }\r\n\r\n    function endElection(uint256 _electionId) public onlyAdmin normalAdmin(msg.sender) {\r\n        electionDetails[_electionId].end = true;\r\n        electionDetails[_electionId].start = false;\r\n    }\r\n\r\n\r\n    //FUNCTION FOR GETS\r\n    function getElectionTitle(uint256 _electionId) public view returns (string memory) {\r\n        return electionDetails[_electionId].electionTitle;\r\n    }\r\n    \r\n    function getVoterName(address _voterAddress) public view returns (string memory) {\r\n        return accountsDetails[_voterAddress].accountName;\r\n    }\r\n\r\n\r\n    //TEST ADMINs\r\n    address[] public admins;\r\n\r\n    function addAdmin(address _adminAddress) public onlyAdmin {\r\n        admins.push(_adminAddress);\r\n    }\r\n\r\n    function getAdminLength() public view returns (uint256) {\r\n        return admins.length;\r\n    }\r\n\r\n    function removeAdmin(uint256 _adminIndex) public {\r\n        delete admins[_adminIndex];\r\n    }\r\n\r\n    modifier normalAdmin(address _address) {\r\n        bool isAdmin = false;\r\n        for (uint i = 0; i < admins.length; i++) {\r\n            if (_address == admins[i]){\r\n                isAdmin = true;\r\n            }\r\n        }\r\n        require(isAdmin == true);\r\n        _;\r\n    }\r\n\r\n}\r\n",
  "sourcePath": "C:\\Users\\Ben\\Desktop\\Y3S2\\FYP\\APVote\\apvote-smartContract\\contracts\\ElectionCon.sol",
  "compiler": {
    "name": "solc",
    "version": "0.8.11+commit.d7f03943.Emscripten.clang"
  },
  "schemaVersion": "3.4.4",
  "updatedAt": "2022-03-27T07:57:22.412Z",
  "networkType": "ethereum",
  "devdoc": {
    "kind": "dev",
    "methods": {},
    "version": 1
  },
  "userdoc": {
    "kind": "user",
    "methods": {},
    "version": 1
  }
}