{
  "contractName": "ElectionCon",
  "abi": [
    {
      "inputs": [],
      "stateMutability": "nonpayable",
      "type": "constructor"
    },
    {
      "inputs": [],
      "name": "accountsCount",
      "outputs": [
        {
          "internalType": "uint256",
          "name": "",
          "type": "uint256"
        }
      ],
      "stateMutability": "view",
      "type": "function",
      "constant": true
    },
    {
      "inputs": [
        {
          "internalType": "address",
          "name": "",
          "type": "address"
        }
      ],
      "name": "accountsDetails",
      "outputs": [
        {
          "internalType": "uint256",
          "name": "accountId",
          "type": "uint256"
        },
        {
          "internalType": "address",
          "name": "accountAddress",
          "type": "address"
        },
        {
          "internalType": "string",
          "name": "accountName",
          "type": "string"
        },
        {
          "internalType": "string",
          "name": "accountPhone",
          "type": "string"
        },
        {
          "internalType": "string",
          "name": "accountCountry",
          "type": "string"
        },
        {
          "internalType": "string",
          "name": "accountEmail",
          "type": "string"
        }
      ],
      "stateMutability": "view",
      "type": "function",
      "constant": true
    },
    {
      "inputs": [],
      "name": "electionCount",
      "outputs": [
        {
          "internalType": "uint256",
          "name": "",
          "type": "uint256"
        }
      ],
      "stateMutability": "view",
      "type": "function",
      "constant": true
    },
    {
      "inputs": [
        {
          "internalType": "uint256",
          "name": "",
          "type": "uint256"
        }
      ],
      "name": "electionDetails",
      "outputs": [
        {
          "internalType": "uint256",
          "name": "electionId",
          "type": "uint256"
        },
        {
          "internalType": "string",
          "name": "electionTitle",
          "type": "string"
        },
        {
          "internalType": "string",
          "name": "electionCanOne",
          "type": "string"
        },
        {
          "internalType": "string",
          "name": "electionCanOneHash",
          "type": "string"
        },
        {
          "internalType": "uint256",
          "name": "electionCanOneCount",
          "type": "uint256"
        },
        {
          "internalType": "string",
          "name": "electionCanTwo",
          "type": "string"
        },
        {
          "internalType": "string",
          "name": "electionCanTwoHash",
          "type": "string"
        },
        {
          "internalType": "uint256",
          "name": "electionCanTwoCount",
          "type": "uint256"
        },
        {
          "internalType": "uint256",
          "name": "voterCount",
          "type": "uint256"
        },
        {
          "internalType": "uint256",
          "name": "votedCount",
          "type": "uint256"
        },
        {
          "internalType": "bool",
          "name": "start",
          "type": "bool"
        },
        {
          "internalType": "bool",
          "name": "end",
          "type": "bool"
        }
      ],
      "stateMutability": "view",
      "type": "function",
      "constant": true
    },
    {
      "inputs": [],
      "name": "superAdmin",
      "outputs": [
        {
          "internalType": "address",
          "name": "",
          "type": "address"
        }
      ],
      "stateMutability": "view",
      "type": "function",
      "constant": true
    },
    {
      "inputs": [],
      "name": "voterCount",
      "outputs": [
        {
          "internalType": "uint256",
          "name": "",
          "type": "uint256"
        }
      ],
      "stateMutability": "view",
      "type": "function",
      "constant": true
    },
    {
      "inputs": [
        {
          "internalType": "uint256",
          "name": "",
          "type": "uint256"
        }
      ],
      "name": "voterDetails",
      "outputs": [
        {
          "internalType": "uint256",
          "name": "voterId",
          "type": "uint256"
        },
        {
          "internalType": "address",
          "name": "voterAddress",
          "type": "address"
        },
        {
          "internalType": "uint256",
          "name": "registeredElection",
          "type": "uint256"
        },
        {
          "internalType": "bool",
          "name": "isRegistered",
          "type": "bool"
        },
        {
          "internalType": "bool",
          "name": "isVerified",
          "type": "bool"
        },
        {
          "internalType": "bool",
          "name": "hasVoted",
          "type": "bool"
        }
      ],
      "stateMutability": "view",
      "type": "function",
      "constant": true
    },
    {
      "inputs": [],
      "name": "getAdmin",
      "outputs": [
        {
          "internalType": "address",
          "name": "",
          "type": "address"
        }
      ],
      "stateMutability": "view",
      "type": "function",
      "constant": true
    },
    {
      "inputs": [
        {
          "internalType": "string",
          "name": "_electionTitle",
          "type": "string"
        },
        {
          "internalType": "string",
          "name": "_electionCanOne",
          "type": "string"
        },
        {
          "internalType": "string",
          "name": "_electionCanTwo",
          "type": "string"
        },
        {
          "internalType": "string",
          "name": "_electionCanOneHash",
          "type": "string"
        },
        {
          "internalType": "string",
          "name": "_electionCanTwoHash",
          "type": "string"
        }
      ],
      "name": "addElection",
      "outputs": [],
      "stateMutability": "nonpayable",
      "type": "function"
    },
    {
      "inputs": [
        {
          "internalType": "uint256",
          "name": "_registeredElection",
          "type": "uint256"
        }
      ],
      "name": "addVoter",
      "outputs": [],
      "stateMutability": "nonpayable",
      "type": "function"
    },
    {
      "inputs": [
        {
          "internalType": "string",
          "name": "_accountName",
          "type": "string"
        },
        {
          "internalType": "string",
          "name": "_accountPhone",
          "type": "string"
        },
        {
          "internalType": "string",
          "name": "_accountCountry",
          "type": "string"
        },
        {
          "internalType": "string",
          "name": "_accountEmail",
          "type": "string"
        }
      ],
      "name": "addAccounts",
      "outputs": [],
      "stateMutability": "nonpayable",
      "type": "function"
    },
    {
      "inputs": [
        {
          "internalType": "uint256",
          "name": "_voterId",
          "type": "uint256"
        },
        {
          "internalType": "uint256",
          "name": "_electionId",
          "type": "uint256"
        }
      ],
      "name": "verifyVoter",
      "outputs": [],
      "stateMutability": "nonpayable",
      "type": "function"
    },
    {
      "inputs": [
        {
          "internalType": "uint256",
          "name": "_voterId",
          "type": "uint256"
        },
        {
          "internalType": "uint256",
          "name": "_electionId",
          "type": "uint256"
        },
        {
          "internalType": "uint256",
          "name": "_candidate",
          "type": "uint256"
        }
      ],
      "name": "voteElection",
      "outputs": [],
      "stateMutability": "nonpayable",
      "type": "function"
    },
    {
      "inputs": [
        {
          "internalType": "uint256",
          "name": "_electionId",
          "type": "uint256"
        }
      ],
      "name": "startElection",
      "outputs": [],
      "stateMutability": "nonpayable",
      "type": "function"
    },
    {
      "inputs": [
        {
          "internalType": "uint256",
          "name": "_electionId",
          "type": "uint256"
        }
      ],
      "name": "endElection",
      "outputs": [],
      "stateMutability": "nonpayable",
      "type": "function"
    },
    {
      "inputs": [
        {
          "internalType": "uint256",
          "name": "_electionId",
          "type": "uint256"
        }
      ],
      "name": "getElectionTitle",
      "outputs": [
        {
          "internalType": "string",
          "name": "",
          "type": "string"
        }
      ],
      "stateMutability": "view",
      "type": "function",
      "constant": true
    },
    {
      "inputs": [
        {
          "internalType": "address",
          "name": "_voterAddress",
          "type": "address"
        }
      ],
      "name": "getVoterName",
      "outputs": [
        {
          "internalType": "string",
          "name": "",
          "type": "string"
        }
      ],
      "stateMutability": "view",
      "type": "function",
      "constant": true
    },
    {
      "inputs": [
        {
          "internalType": "string",
          "name": "x",
          "type": "string"
        }
      ],
      "name": "set",
      "outputs": [],
      "stateMutability": "nonpayable",
      "type": "function"
    },
    {
      "inputs": [],
      "name": "get",
      "outputs": [
        {
          "internalType": "string",
          "name": "",
          "type": "string"
        }
      ],
      "stateMutability": "view",
      "type": "function",
      "constant": true
    }
  ],
  "bytecode": "0x608060405234801561001057600080fd5b50336000806101000a81548173ffffffffffffffffffffffffffffffffffffffff021916908373ffffffffffffffffffffffffffffffffffffffff160217905550600060018190555060006002819055506000600381905550611e83806100786000396000f3fe608060405234801561001057600080fd5b50600436106101205760003560e01c80636d4ce63c116100ad578063997d283011610071578063997d28301461031c5780639c98bcbb1461033a5780639cc1d5a914610356578063c22b6b9d14610372578063d8f7a0bb146103a257610120565b80636d4ce63c1461028c5780636e9960c3146102aa5780636efaad1e146102c857806382ae7408146102e457806397a347b61461030057610120565b8063322f029d116100f4578063322f029d146101d157806342169e48146102065780634d94fc6a146102245780634ed3885e146102545780636d32dc4b1461027057610120565b8062535947146101255780630119e0381461016057806327538b301461019557806329575f6a146101b3575b600080fd5b61013f600480360381019061013a91906115db565b6103be565b6040516101579c9b9a999897969594939291906116cb565b60405180910390f35b61017a60048036038101906101759190611806565b6106e0565b60405161018c96959493929190611842565b60405180910390f35b61019d61095c565b6040516101aa91906118bf565b60405180910390f35b6101bb610962565b6040516101c891906118da565b60405180910390f35b6101eb60048036038101906101e691906115db565b610986565b6040516101fd969594939291906118f5565b60405180910390f35b61020e610a09565b60405161021b91906118bf565b60405180910390f35b61023e600480360381019061023991906115db565b610a0f565b60405161024b9190611956565b60405180910390f35b61026e60048036038101906102699190611aad565b610ab7565b005b61028a600480360381019061028591906115db565b610ad1565b005b610294610b8a565b6040516102a19190611956565b60405180910390f35b6102b2610c1c565b6040516102bf91906118da565b60405180910390f35b6102e260048036038101906102dd9190611af6565b610c45565b005b6102fe60048036038101906102f99190611bcd565b610db7565b005b61031a60048036038101906103159190611c20565b610f63565b005b61032461115e565b60405161033191906118bf565b60405180910390f35b610354600480360381019061034f91906115db565b611164565b005b610370600480360381019061036b9190611d27565b61121d565b005b61038c60048036038101906103879190611806565b6112d6565b6040516103999190611956565b60405180910390f35b6103bc60048036038101906103b791906115db565b6113aa565b005b60046020528060005260406000206000915090508060000154908060010180546103e790611d96565b80601f016020809104026020016040519081016040528092919081815260200182805461041390611d96565b80156104605780601f1061043557610100808354040283529160200191610460565b820191906000526020600020905b81548152906001019060200180831161044357829003601f168201915b50505050509080600201805461047590611d96565b80601f01602080910402602001604051908101604052809291908181526020018280546104a190611d96565b80156104ee5780601f106104c3576101008083540402835291602001916104ee565b820191906000526020600020905b8154815290600101906020018083116104d157829003601f168201915b50505050509080600301805461050390611d96565b80601f016020809104026020016040519081016040528092919081815260200182805461052f90611d96565b801561057c5780601f106105515761010080835404028352916020019161057c565b820191906000526020600020905b81548152906001019060200180831161055f57829003601f168201915b50505050509080600401549080600501805461059790611d96565b80601f01602080910402602001604051908101604052809291908181526020018280546105c390611d96565b80156106105780601f106105e557610100808354040283529160200191610610565b820191906000526020600020905b8154815290600101906020018083116105f357829003601f168201915b50505050509080600601805461062590611d96565b80601f016020809104026020016040519081016040528092919081815260200182805461065190611d96565b801561069e5780601f106106735761010080835404028352916020019161069e565b820191906000526020600020905b81548152906001019060200180831161068157829003601f168201915b50505050509080600701549080600801549080600901549080600a0160009054906101000a900460ff169080600a0160019054906101000a900460ff1690508c565b60066020528060005260406000206000915090508060000154908060010160009054906101000a900473ffffffffffffffffffffffffffffffffffffffff169080600201805461072f90611d96565b80601f016020809104026020016040519081016040528092919081815260200182805461075b90611d96565b80156107a85780601f1061077d576101008083540402835291602001916107a8565b820191906000526020600020905b81548152906001019060200180831161078b57829003601f168201915b5050505050908060030180546107bd90611d96565b80601f01602080910402602001604051908101604052809291908181526020018280546107e990611d96565b80156108365780601f1061080b57610100808354040283529160200191610836565b820191906000526020600020905b81548152906001019060200180831161081957829003601f168201915b50505050509080600401805461084b90611d96565b80601f016020809104026020016040519081016040528092919081815260200182805461087790611d96565b80156108c45780601f10610899576101008083540402835291602001916108c4565b820191906000526020600020905b8154815290600101906020018083116108a757829003601f168201915b5050505050908060050180546108d990611d96565b80601f016020809104026020016040519081016040528092919081815260200182805461090590611d96565b80156109525780601f1061092757610100808354040283529160200191610952565b820191906000526020600020905b81548152906001019060200180831161093557829003601f168201915b5050505050905086565b60035481565b60008054906101000a900473ffffffffffffffffffffffffffffffffffffffff1681565b60056020528060005260406000206000915090508060000154908060010160009054906101000a900473ffffffffffffffffffffffffffffffffffffffff16908060020154908060030160009054906101000a900460ff16908060030160019054906101000a900460ff16908060030160029054906101000a900460ff16905086565b60025481565b6060600460008381526020019081526020016000206001018054610a3290611d96565b80601f0160208091040260200160405190810160405280929190818152602001828054610a5e90611d96565b8015610aab5780601f10610a8057610100808354040283529160200191610aab565b820191906000526020600020905b815481529060010190602001808311610a8e57829003601f168201915b50505050509050919050565b8060079080519060200190610acd9291906114ee565b5050565b60008054906101000a900473ffffffffffffffffffffffffffffffffffffffff1673ffffffffffffffffffffffffffffffffffffffff163373ffffffffffffffffffffffffffffffffffffffff1614610b2957600080fd5b600160046000838152602001908152602001600020600a0160006101000a81548160ff021916908315150217905550600060046000838152602001908152602001600020600a0160016101000a81548160ff02191690831515021790555050565b606060078054610b9990611d96565b80601f0160208091040260200160405190810160405280929190818152602001828054610bc590611d96565b8015610c125780601f10610be757610100808354040283529160200191610c12565b820191906000526020600020905b815481529060010190602001808311610bf557829003601f168201915b5050505050905090565b60008060009054906101000a900473ffffffffffffffffffffffffffffffffffffffff16905090565b60006040518060c0016040528060035481526020013373ffffffffffffffffffffffffffffffffffffffff16815260200186815260200185815260200184815260200183815250905080600660003373ffffffffffffffffffffffffffffffffffffffff1673ffffffffffffffffffffffffffffffffffffffff1681526020019081526020016000206000820151816000015560208201518160010160006101000a81548173ffffffffffffffffffffffffffffffffffffffff021916908373ffffffffffffffffffffffffffffffffffffffff1602179055506040820151816002019080519060200190610d3b9291906114ee565b506060820151816003019080519060200190610d589291906114ee565b506080820151816004019080519060200190610d759291906114ee565b5060a0820151816005019080519060200190610d929291906114ee565b50905050600160036000828254610da99190611df7565b925050819055505050505050565b600015156005600085815260200190815260200160002060030160029054906101000a900460ff16151514610deb57600080fd5b600115156005600085815260200190815260200160002060030160019054906101000a900460ff16151514610e1f57600080fd5b6001151560046000848152602001908152602001600020600a0160009054906101000a900460ff16151514610e5357600080fd5b6000151560046000848152602001908152602001600020600a0160019054906101000a900460ff16151514610e8757600080fd5b6000811415610ec3576001600460008481526020019081526020016000206004016000828254610eb79190611df7565b92505081905550610f01565b6001811415610eff576001600460008481526020019081526020016000206007016000828254610ef39190611df7565b92505081905550610f00565b5b5b6001600460008481526020019081526020016000206009016000828254610f289190611df7565b9250508190555060016005600085815260200190815260200160002060030160026101000a81548160ff021916908315150217905550505050565b60008054906101000a900473ffffffffffffffffffffffffffffffffffffffff1673ffffffffffffffffffffffffffffffffffffffff163373ffffffffffffffffffffffffffffffffffffffff1614610fbb57600080fd5b6000604051806101800160405280600154815260200187815260200186815260200184815260200160008152602001858152602001838152602001600081526020016000815260200160008152602001600015158152602001600015158152509050806004600060015481526020019081526020016000206000820151816000015560208201518160010190805190602001906110599291906114ee565b5060408201518160020190805190602001906110769291906114ee565b5060608201518160030190805190602001906110939291906114ee565b506080820151816004015560a08201518160050190805190602001906110ba9291906114ee565b5060c08201518160060190805190602001906110d79291906114ee565b5060e082015181600701556101008201518160080155610120820151816009015561014082015181600a0160006101000a81548160ff02191690831515021790555061016082015181600a0160016101000a81548160ff021916908315150217905550905050600180600082825461114f9190611df7565b92505081905550505050505050565b60015481565b60008054906101000a900473ffffffffffffffffffffffffffffffffffffffff1673ffffffffffffffffffffffffffffffffffffffff163373ffffffffffffffffffffffffffffffffffffffff16146111bc57600080fd5b600160046000838152602001908152602001600020600a0160016101000a81548160ff021916908315150217905550600060046000838152602001908152602001600020600a0160006101000a81548160ff02191690831515021790555050565b60008054906101000a900473ffffffffffffffffffffffffffffffffffffffff1673ffffffffffffffffffffffffffffffffffffffff163373ffffffffffffffffffffffffffffffffffffffff161461127557600080fd5b60016005600084815260200190815260200160002060030160016101000a81548160ff02191690831515021790555060016004600083815260200190815260200160002060080160008282546112cb9190611df7565b925050819055505050565b6060600660008373ffffffffffffffffffffffffffffffffffffffff1673ffffffffffffffffffffffffffffffffffffffff168152602001908152602001600020600201805461132590611d96565b80601f016020809104026020016040519081016040528092919081815260200182805461135190611d96565b801561139e5780601f106113735761010080835404028352916020019161139e565b820191906000526020600020905b81548152906001019060200180831161138157829003601f168201915b50505050509050919050565b60006040518060c0016040528060025481526020013373ffffffffffffffffffffffffffffffffffffffff168152602001838152602001600115158152602001600015158152602001600015158152509050806005600060025481526020019081526020016000206000820151816000015560208201518160010160006101000a81548173ffffffffffffffffffffffffffffffffffffffff021916908373ffffffffffffffffffffffffffffffffffffffff1602179055506040820151816002015560608201518160030160006101000a81548160ff02191690831515021790555060808201518160030160016101000a81548160ff02191690831515021790555060a08201518160030160026101000a81548160ff0219169083151502179055509050506001600260008282546114e39190611df7565b925050819055505050565b8280546114fa90611d96565b90600052602060002090601f01602090048101928261151c5760008555611563565b82601f1061153557805160ff1916838001178555611563565b82800160010185558215611563579182015b82811115611562578251825591602001919060010190611547565b5b5090506115709190611574565b5090565b5b8082111561158d576000816000905550600101611575565b5090565b6000604051905090565b600080fd5b600080fd5b6000819050919050565b6115b8816115a5565b81146115c357600080fd5b50565b6000813590506115d5816115af565b92915050565b6000602082840312156115f1576115f061159b565b5b60006115ff848285016115c6565b91505092915050565b611611816115a5565b82525050565b600081519050919050565b600082825260208201905092915050565b60005b83811015611651578082015181840152602081019050611636565b83811115611660576000848401525b50505050565b6000601f19601f8301169050919050565b600061168282611617565b61168c8185611622565b935061169c818560208601611633565b6116a581611666565b840191505092915050565b60008115159050919050565b6116c5816116b0565b82525050565b6000610180820190506116e1600083018f611608565b81810360208301526116f3818e611677565b90508181036040830152611707818d611677565b9050818103606083015261171b818c611677565b905061172a608083018b611608565b81810360a083015261173c818a611677565b905081810360c08301526117508189611677565b905061175f60e0830188611608565b61176d610100830187611608565b61177b610120830186611608565b6117896101408301856116bc565b6117976101608301846116bc565b9d9c50505050505050505050505050565b600073ffffffffffffffffffffffffffffffffffffffff82169050919050565b60006117d3826117a8565b9050919050565b6117e3816117c8565b81146117ee57600080fd5b50565b600081359050611800816117da565b92915050565b60006020828403121561181c5761181b61159b565b5b600061182a848285016117f1565b91505092915050565b61183c816117c8565b82525050565b600060c0820190506118576000830189611608565b6118646020830188611833565b81810360408301526118768187611677565b9050818103606083015261188a8186611677565b9050818103608083015261189e8185611677565b905081810360a08301526118b28184611677565b9050979650505050505050565b60006020820190506118d46000830184611608565b92915050565b60006020820190506118ef6000830184611833565b92915050565b600060c08201905061190a6000830189611608565b6119176020830188611833565b6119246040830187611608565b61193160608301866116bc565b61193e60808301856116bc565b61194b60a08301846116bc565b979650505050505050565b600060208201905081810360008301526119708184611677565b905092915050565b600080fd5b600080fd5b7f4e487b7100000000000000000000000000000000000000000000000000000000600052604160045260246000fd5b6119ba82611666565b810181811067ffffffffffffffff821117156119d9576119d8611982565b5b80604052505050565b60006119ec611591565b90506119f882826119b1565b919050565b600067ffffffffffffffff821115611a1857611a17611982565b5b611a2182611666565b9050602081019050919050565b82818337600083830152505050565b6000611a50611a4b846119fd565b6119e2565b905082815260208101848484011115611a6c57611a6b61197d565b5b611a77848285611a2e565b509392505050565b600082601f830112611a9457611a93611978565b5b8135611aa4848260208601611a3d565b91505092915050565b600060208284031215611ac357611ac261159b565b5b600082013567ffffffffffffffff811115611ae157611ae06115a0565b5b611aed84828501611a7f565b91505092915050565b60008060008060808587031215611b1057611b0f61159b565b5b600085013567ffffffffffffffff811115611b2e57611b2d6115a0565b5b611b3a87828801611a7f565b945050602085013567ffffffffffffffff811115611b5b57611b5a6115a0565b5b611b6787828801611a7f565b935050604085013567ffffffffffffffff811115611b8857611b876115a0565b5b611b9487828801611a7f565b925050606085013567ffffffffffffffff811115611bb557611bb46115a0565b5b611bc187828801611a7f565b91505092959194509250565b600080600060608486031215611be657611be561159b565b5b6000611bf4868287016115c6565b9350506020611c05868287016115c6565b9250506040611c16868287016115c6565b9150509250925092565b600080600080600060a08688031215611c3c57611c3b61159b565b5b600086013567ffffffffffffffff811115611c5a57611c596115a0565b5b611c6688828901611a7f565b955050602086013567ffffffffffffffff811115611c8757611c866115a0565b5b611c9388828901611a7f565b945050604086013567ffffffffffffffff811115611cb457611cb36115a0565b5b611cc088828901611a7f565b935050606086013567ffffffffffffffff811115611ce157611ce06115a0565b5b611ced88828901611a7f565b925050608086013567ffffffffffffffff811115611d0e57611d0d6115a0565b5b611d1a88828901611a7f565b9150509295509295909350565b60008060408385031215611d3e57611d3d61159b565b5b6000611d4c858286016115c6565b9250506020611d5d858286016115c6565b9150509250929050565b7f4e487b7100000000000000000000000000000000000000000000000000000000600052602260045260246000fd5b60006002820490506001821680611dae57607f821691505b60208210811415611dc257611dc1611d67565b5b50919050565b7f4e487b7100000000000000000000000000000000000000000000000000000000600052601160045260246000fd5b6000611e02826115a5565b9150611e0d836115a5565b9250827fffffffffffffffffffffffffffffffffffffffffffffffffffffffffffffffff03821115611e4257611e41611dc8565b5b82820190509291505056fea2646970667358221220bce5cd9325140edac27b18fef80df96209b1a89b7839231d68e1e2d1cf7f49f464736f6c634300080b0033",
  "immutableReferences": {},
  "source": "pragma solidity >=0.4.21 <0.9.0;\r\n\r\ncontract ElectionCon {\r\n    address public superAdmin;\r\n    uint256 public electionCount;\r\n    uint256 public voterCount;\r\n    uint256 public accountsCount;\r\n\r\n    constructor() public {\r\n        superAdmin = msg.sender;\r\n        electionCount = 0;\r\n        voterCount = 0;\r\n        accountsCount = 0;\r\n    }\r\n\r\n    function getAdmin() public view returns (address) {\r\n        return superAdmin;\r\n    }\r\n\r\n    modifier onlyAdmin() {\r\n        require(msg.sender == superAdmin);\r\n        _;\r\n    }\r\n\r\n    //EMITS\r\n    /*todo*/\r\n\r\n\r\n    //STRUCTS\r\n    struct Election {\r\n        uint256 electionId;\r\n        string electionTitle;\r\n        string electionCanOne;\r\n        string electionCanOneHash;\r\n        uint256 electionCanOneCount;\r\n        string electionCanTwo;\r\n        string electionCanTwoHash;\r\n        uint256 electionCanTwoCount;\r\n        uint256 voterCount;\r\n        uint256 votedCount;\r\n        bool start;\r\n        bool end;\r\n    }\r\n    mapping(uint256 => Election) public electionDetails;\r\n\r\n    struct Voter {\r\n        uint256 voterId;\r\n        address voterAddress;\r\n        uint256 registeredElection;\r\n        bool isRegistered;\r\n        bool isVerified;\r\n        bool hasVoted;\r\n    }\r\n    mapping(uint256 => Voter) public voterDetails;\r\n\r\n    struct Accounts {\r\n        uint256 accountId;\r\n        address accountAddress;\r\n        string accountName;\r\n        string accountPhone;\r\n        string accountCountry;\r\n        string accountEmail;\r\n    }\r\n    mapping(address => Accounts) public accountsDetails;\r\n\r\n\r\n    //FUNCTIONS FOR ADD\r\n    function addElection(\r\n        string memory _electionTitle,\r\n        string memory _electionCanOne,\r\n        string memory _electionCanTwo,\r\n        string memory _electionCanOneHash,\r\n        string memory _electionCanTwoHash\r\n    ) public onlyAdmin {\r\n        Election memory newElection =\r\n            Election({\r\n                electionId: electionCount,\r\n                electionTitle: _electionTitle,\r\n                electionCanOne: _electionCanOne,\r\n                electionCanOneHash: _electionCanOneHash,\r\n                electionCanOneCount: 0,\r\n                electionCanTwo: _electionCanTwo,\r\n                electionCanTwoHash: _electionCanTwoHash,\r\n                electionCanTwoCount: 0,\r\n                voterCount: 0,\r\n                votedCount: 0,\r\n                start: false,\r\n                end: false\r\n            });\r\n        electionDetails[electionCount] = newElection;\r\n        electionCount += 1;\r\n    }\r\n\r\n    function addVoter(\r\n        uint256 _registeredElection\r\n    ) public {\r\n        /*require that voter address has name*/\r\n        Voter memory newVoter =\r\n            Voter({\r\n                voterId: voterCount,\r\n                voterAddress: msg.sender,\r\n                registeredElection: _registeredElection,\r\n                isRegistered: true,\r\n                isVerified: false,\r\n                hasVoted: false\r\n            });\r\n        voterDetails[voterCount] = newVoter;\r\n        voterCount += 1;\r\n    }\r\n\r\n    function addAccounts(\r\n        string memory _accountName,\r\n        string memory _accountPhone,\r\n        string memory _accountCountry,\r\n        string memory _accountEmail\r\n    ) public {\r\n        Accounts memory newAccount =\r\n            Accounts({\r\n                accountId: accountsCount,\r\n                accountAddress: msg.sender,\r\n                accountName: _accountName,\r\n                accountPhone: _accountPhone,\r\n                accountCountry: _accountCountry,\r\n                accountEmail: _accountEmail\r\n            });\r\n        accountsDetails[msg.sender] = newAccount;\r\n        accountsCount += 1;\r\n    }\r\n\r\n\r\n    //FUNCTION FOR VOTES\r\n    function verifyVoter(\r\n        uint256 _voterId,\r\n        uint256 _electionId\r\n    ) public onlyAdmin {\r\n        /*require that both exists*/\r\n        voterDetails[_voterId].isVerified = true;\r\n        electionDetails[_electionId].voterCount += 1;\r\n    }\r\n\r\n    function voteElection(uint256 _voterId, uint256 _electionId, uint256 _candidate) public {\r\n        require(voterDetails[_voterId].hasVoted == false);\r\n        require(voterDetails[_voterId].isVerified == true);\r\n        require(electionDetails[_electionId].start == true);\r\n        require(electionDetails[_electionId].end == false);\r\n        if (_candidate == 0) {\r\n            electionDetails[_electionId].electionCanOneCount += 1;\r\n        } else if (_candidate == 1) {\r\n            electionDetails[_electionId].electionCanTwoCount += 1;\r\n        } else {}\r\n        electionDetails[_electionId].votedCount += 1;\r\n        voterDetails[_voterId].hasVoted = true;\r\n    }\r\n\r\n    \r\n    //FUNCTION FOR ELECTIONS\r\n    function startElection(uint256 _electionId) public onlyAdmin {\r\n        electionDetails[_electionId].start = true;\r\n        electionDetails[_electionId].end = false;\r\n    }\r\n\r\n    function endElection(uint256 _electionId) public onlyAdmin {\r\n        electionDetails[_electionId].end = true;\r\n        electionDetails[_electionId].start = false;\r\n    }\r\n\r\n\r\n    //FUNCTION FOR GETS\r\n    function getElectionTitle(uint256 _electionId) public view returns (string memory) {\r\n        return electionDetails[_electionId].electionTitle;\r\n    }\r\n    \r\n    function getVoterName(address _voterAddress) public view returns (string memory) {\r\n        return accountsDetails[_voterAddress].accountName;\r\n    }\r\n\r\n    string ipfsHash;\r\n\r\n    function set(string memory x) public {\r\n        ipfsHash = x;\r\n    }\r\n\r\n    function get() public view returns (string memory) {\r\n        return ipfsHash;\r\n    }\r\n\r\n}\r\n",
  "sourcePath": "C:\\Users\\Ben\\Desktop\\Y3S2\\FYP\\APVote\\apvote-smartContract\\contracts\\ElectionCon.sol",
  "compiler": {
    "name": "solc",
    "version": "0.8.11+commit.d7f03943.Emscripten.clang"
  },
  "schemaVersion": "3.4.4",
  "updatedAt": "2022-03-24T08:36:30.192Z",
  "networkType": "ethereum",
  "devdoc": {
    "kind": "dev",
    "methods": {},
    "version": 1
  },
  "userdoc": {
    "kind": "user",
    "methods": {},
    "version": 1
  }
}